:020000040800F2
:10000000F8FF0724110500084F2004083D200408CC
:10001000512004085D200408692004080000000045
:10002000000000000000000000000000752004082F
:100030007720040800000000CD360408E5360408E7
:1000400099020008E9200408FB20040801210408A3
:10005000F5A9040899020008999E04089F9E0408C7
:10006000A59E0408AB9E0408B19E04086D5E0408BA
:100070007D5E04088D5E04089D5E0408AD5E040884
:10008000BD5E0408CD5E0408990200085B8C04087C
:1000900099020008618C040899020008B79E0408C0
:1000A000152104081B210408212104082721040824
:1000B0002B2104083121040837210408AD65040808
:1000C000C9650408E565040801660408357004087C
:1000D00041700408C3210408C9210408CF21040881
:1000E000DB9E0408EF200408000000008D210408B6
:1000F00093210408AB210408A5210408DD5E04084F
:1001000099020008BDB304083D2104084D7004089D
:10011000D5210408DB210408552104085D210408C9
:10012000ED5E0408FD5E04080D5F04081D5F040811
:100130002D5F040899020008F520040899020008C0
:1001400000000000000000000000000000000000AF
:100150003D5F04084D5F04085D5F0408E121040869
:100160009902000899020008990200089902000803
:100170009902000899020008990200080000000096
:100180009902000899020008E7210408ED210408FB
:1001900059700408990200089902000899020008A1
:1001A00099020008990200089902000899020008C3
:1001B00099020008990200089902000899020008B3
:1001C00099020008990200089902000899020008A3
:1001D0008520040879200408990200089902000883
:1001E0009902000899020008990200089902000883
:1001F0009902000899020008990200089902000873
:100200009902000899020008990200089902000862
:10021000B1210408B7210408BD210408990200088F
:1002200099020008990200089902000800000000E5
:1002300099020008990200080000000099020008D5
:100240009902000899020008990200089902000822
:100250009902000899020008990200089902000812
:100260009902000899020008990200089902000802
:100270009902000899020008F32104080000000018
:100280009902000899020008990200080000000085
:080290000000000099020008C3
:10029800FEE70000254AD2F8883043F47003C2F81C
:1002A8008830234A136803F00F03062B05D8136818
:1002B80023F00F0343F0070313601E4B1A6842F044
:1002C80001021A6000221A611B4A19680A4018497B
:1002D8001A600A68120705D50A6822F00F0242F070
:1002E80007020A60002215499A61DA611A62996266
:1002F8001349D962134919635A639963DA63196414
:100308005A64196821F4802119601A660E4B1B681B
:100318006FF30F03B3F1005F03D20C4B0122C3F854
:1003280008210B4B43F2D2021A60704700ED00E03F
:1003380000200052004402587FEDF6EA0002020253
:100348000000FF01800201010010005C00800051E4
:10035800004000522DE9F041D0B020220021644D28
:100368000DAC05A832F0D8F84C220021204632F016
:10037800D3F8C022002120A832F0CEF8EB6823F091
:100388000403EB606B689804FCD533F05DFF42F220
:100398000203984250D9574BD3F8F42042F0020296
:1003A800C3F8F4200022D3F8F43003F002030193D9
:1003B800019B0292AA6942F44042AA61AA6902F426
:1003C800404202924C4AD16A41F00101D162D26A9C
:1003D80002F001020292029B454A93699904FCD5F6
:1003E80001224FF480333F21032002254FF00508F6
:1003F80005910821C02714266563C4E9002300225B
:100408004023CDE90602C4E90323C4E91012A2641B
:100418004FF4806220460A93C4E90955C4E90B8762
:10042800C4E90E65CDE90813CDE90B2337F0BCFE0E
:10043800B8B1324841F09CF9002203922E4AD16AA1
:1004480021F00101D162D26A02F001020392AA6985
:1004580042F44042AA61AA6902F440420392039B13
:10046800BAE74FF400634FF4802231902E95CDE91E
:100478002F30002320A8CDE920234FF40013CDE925
:100488002A87CDE92C56429338F034FC08B11C4831
:10049800D0E71922236B302105A85343E26AB3FB46
:1004A800F2F3B3FBF1F201FB1232616B003AB3FBDA
:1004B800F1F118BF012243F02FFA08B11148B9E74A
:1004C8000C4B1A6842F080021A60D3F8F42042F00C
:1004D8000202C3F8F420D3F8F43003F002030493C3
:1004E800049B33F0BFFE37F057FE50B0BDE8F081F3
:1004F8000048025800440258000400583CCF040841
:100508004ECF040868CF04080446DFF82CD00B4906
:100518000B4A0C4B03E051F8040B42F8040B9A42C7
:10052800F9D300200849094A01E041F8040B914237
:10053800FBD3204641F0A4BAF8FF0724C4530608A9
:10054800000000244C0000244C000024A43800249F
:1005580040F8044B40F8045B40F8046B40F8047B17
:1005680040F8048B40F8049B40F804AB40F804BB07
:1005780040F804CB40F804DB6846704708B5002013
:10058800054B53F8042F2AB101301028F9D11C204B
:100598000FF06AFA08BD00BF9002002408B583076F
:1005A80006D10368074A934205D0074A934202D00E
:1005B80006480FF00FFA037E13B105480FF05AF8FA
:1005C80008BD00BF44330508283305087CCF04085C
:1005D8008BCF040838B50D46FFF7E0FF03690446E2
:1005E80013B110200FF040FA2946406800F0FCFDD6
:1005F800E36806200133E36038BD000009282DE9CF
:10060800F047074688B00E460C6802D932480FF00A
:1006180031F8237A03F0FF05A3BBE846DFF8C4905E
:10062800AA460135AF4213D82346002253F8246F57
:100638009446194696423DD17A1E6846626204EB9A
:1006480087042034A3423ED1062008B0BDE8F087D5
:1006580056F8040FFFF7A2FF0268034648F82A007D
:100668004A4512D041460122AA4213D1214600220E
:1006780051F824CF1046844514D11B69002BCFD0E4
:10068800002ACDD110200FF0EFF9C268002AE9D175
:100698001248BCE751F8040B834201D11048B6E771
:1006A8000132E1E751F804EF01309E4508BF42F0FE
:1006B8000102E0E751F8045F013228690138286136
:1006C800C1F800C0B6E750F8042B116943F8042FAD
:1006D80001311161B6E700BFA0CF0408B3CF040809
:1006E800C5CF04084433050830B587B0044608462A
:1006F80011461A4603AB0193104B009303230FF0E6
:10070800EBFCFFF73BFF2146054640200FF06EFF4C
:100718003C2204460021043031F0FEFE9DF81420EE
:10072800DDE9030100F008FF6060054800EB850083
:10073800C0F84841204607B030BD00BF70310508F9
:100748004C0100242DE9F0410D468CB006461746B1
:1007580055F8040B4FF01008FFF720FF184B194A03
:100768000446069329468368701E07930323CDE940
:100778000823154ACDE90A2803AA019206AA00927D
:100788003A460FF04BFC236913B140460FF06CF961
:10079800A368039A9A4202D00C480EF06BFF0499A2
:1007A800032903D8059A531E1F2B01D90848F4E7DB
:1007B800606800F087FD06200CB0BDE8F08100BF3E
:1007C8005B000200C305020293040202D7CF0408AB
:1007D800E9CF0408F0B599B0FFF7E0FE0346EFF360
:1007E800108C72B6426900F11A04C76B6E4600F1AC
:1007F8003A0E2068083454F8041C3546744503C57D
:100808002E46F6D18CF3108812B110460FF02CF951
:1008180018680E49884209D0D86808AC6B469042DF
:100828000ADC08A913F0E8FF19B0F0BD384619B082
:10083800BDE8F04013F09EBA33F8021B01324900BC
:1008480041F0010144F8041BE9E700BF283305081B
:1008580070B51D460446084611464FF002120FF0C7
:10086800B1FB28680FF0A2FF431E0546012B02D9F1
:100878000D480EF0FFFEFFF781FE21460646402098
:100888000FF0B4FE04463C220021043031F044FE4F
:100898002846A56000F000FC6060044800EB860074
:1008A800C0F84841204670BDFECF04084C01002422
:1008B800F8B51C460746084611464FF002120FF0DD
:1008C80081FB20680FF072FF0328054602D90D4806
:1008D8000EF0D0FE00F192030B4E06EB8306B468CF
:1008E8006CB9394648200FF081FE402204460021A9
:1008F800083031F011FE062365602362B46020469B
:10090800F8BD00BF08D004084C01002408B5034610
:10091800806908B10FF0A8F85869BDE8084013F0DD
:1009280044BA41680B7A10B504462BB1CB698342AF
:1009380002D180680FF0AAF800230620237310BDA7
:10094800084B10B50446D0E900209A4205D104F1BD
:100958001A0100F0E5FC606110BD04F13C0100F0F3
:10096800C1FEF8E74433050870B5FFF717FE00220B
:1009780004460F4850F8043F33B1197A21B153F8AF
:10098800245F00218D4209D10132042AF2D1204688
:10099800FFF7D6FF606930B9062070BD53F8046FC1
:1009A800A64202D110200FF05FF80131EAE700BF3C
:1009B8009803002410B50446FFF7D6FF2046BDE88B
:1009C8001040FFF707BF0000037E10B50446BBB90F
:1009D800036913B110200FF047F8D0E900200B4B42
:1009E8009A420FD100F072FD0123094A00212376B3
:1009F800102352F8040F844208BF1160013BF8D15C
:100A0800062010BD00F098FEEEE700BF443305084D
:100A180090020024104A002352F8041F09B1097AF1
:100A2800C1B90133042BF7D10C4BD3F8982372B119
:100A38000B4A0021D16011604FF40001094AC2F845
:100A48008410BFF34F8FBFF36F8FC2F88411002259
:100A5800C3F89823704700BF980300244C01002472
:100A68000014004000E100E010B5EFF3108472B606
:100A780000230372C361FFF7CDFF84F310880620BB
:100A880010BD000038B5054608460C460FF038FE84
:100A980020B9062C02D004480EF09CFF2846FFF728
:100AA800E3FF06202C6238BD19D00408112808D8A5
:100AB800054B03EB8003D3F87C03003818BF0120F3
:100AC80070470020704700BF4C010024022808D856
:100AD800054B03EB8003D3F87002003818BF0120E0
:100AE80070470020704700BF4C01002438B5431EF2
:100AF80004460D46102B02D8431F012B02D80B4881
:100B08000EF0B8FDFFF7D2FF10B110200EF0ACFFC9
:100B1800204643F0C7FC0028F7D00368DB07F4D46D
:100B2800034B03EB8403C3F87C5338BD24D004087B
:100B38004C0100242DE9F043044693B008460FF019
:100B480035FE6FF04043421E07469A4202D32E48B4
:100B58000EF090FD206A0FF0D3FD08B92B48F7E797
:100B68002B4910200FF042FD236A0646446083603B
:100B780000230373EFF3108872B6684600F032FE64
:100B880000283BD1234BD3F89893B9F1000F25D116
:100B9800214D21460720FFF7A9FF42F0B1FC0720AD
:100BA80043F08AFCC5F80090072043F05BFD1B4B1F
:100BB8001B4AD021B0FBF3F040F2E7330138A862BA
:100BC800EB6201236B61C5F81090EB6082F8371374
:100BD8004FF40001C2F8841151602B6000F0D8FD79
:100BE8000023E661C4E905330123C4E903772372CE
:100BF80088F31088062013B0BDE8F08388F31088C6
:100C0800019800F007FE00BF2CD0040833D0040878
:100C1800103305084C0100240014004040420F0026
:100C280000E100E0112808D8DE30044B03EB800314
:100C38005A688A4204BF00225A6070474C01002457
:100C480008B5431E0246012B02D907480EF012FDD3
:100C5800FFF73CFF10B110200EF006FF034B03EB2B
:100C68008203C3F8701208BDFECF04084C010024AB
:100C7800022808D89A30044B03EB80039A688A420A
:100C880004BF00229A6070474C0100242DE9F0410E
:100C980092B00D4644F0FAFE86886C46002730462E
:100CA80001F0F5FC482280461849684631F0F0FB0F
:100CB80054F8041B404631F07BFC10B914480EF080
:100CC800D9FC0137122FF3D1124900234FF0FF321C
:100CD800114851F8044F34B150F82340B44203D1BD
:100CE80010200EF0C1FE1A460133402BF1D1531CDF
:100CF80001D11C20F5E7084B43F82260074B03EBB2
:100D08008203C3F87C5212B0BDE8F0817C33050839
:100D18003DD00408C40300244C0000244C010024E6
:100D2800054A4023002110B552F8044F844208BFF9
:100D38001160013BF8D110BDC40300242DE9F04730
:100D48002C4C2368DA0701D442F0DAFB2A4E4FF024
:100D58000009D4F80480374657F8044FD4B1237AF1
:100D6800C3B12569013D2561A5B9E36804F1240AE9
:100D78002361636901336361636AAB4232D8E46912
:100D8800237B3BB901230621204623730EF0E2FEA4
:100D980000B9207309F10109B9F1040FDCD1154C30
:100DA8002368DB0701D442F0ABFB144B4FF47A7194
:100DB80062681B68A2EB0802B3FBF1F39A4217D3EF
:100DC80000226E20114656F8043F23B11C7A14B154
:100DD8001972C3E906010132042AF4D1BDE8F047CB
:100DE800FFF718BE5AF8040F0135FFF7A9FDC3E74E
:100DF800BDE8F087001000E09803002404000024F8
:100E0800F8B5144D002455F8040F08B1FFF72CFE6F
:100E18000134042CF7D1104E0025104F56F8044F1A
:100E280084B100232361D4E90030BB420ED100F025
:100E38006CFB18B90A490B4802F0B8F9012323766C
:100E4800002333600135102DE8D1F8BD00F074FCA3
:100E5800F4E700BF980300249002002444330508F7
:100E680047D004086C630508EFF3108372B60022BC
:100E7800427183F31088704710B5044C2368DB0770
:100E880001D442F03DFB606810BD00BF001000E0D7
:100E98002DE9F047089E0746884691469A460B4C2E
:100EA8003D6805EA0805003D18BF01254D4509D0F4
:100EB800FFF7E2FFA0EB0A00B04201D2013CEFD1FC
:100EC800002000E00120BDE8F08700BF80841E00FC
:100ED80073B58469FFF7D0FF1E4B05461E684FF4B3
:100EE800FA73B6FBF3F6A368190714D4A3685A0774
:100EF8000CD5A36820460022142143F0100340F8C3
:100F0800083F2B460096FFF7C3FF90B1A368DB07A5
:100F180012D401200EE0A36820460022282143F0C5
:100F2800200340F8083F2B460096FFF7B1FF002842
:100F3800DCD1002002B070BDA36820460022032146
:100F480043F0020340F8083F2B460096FFF7A0FF46
:100F5800F0E700BF040000242DE9F04F90F801C02D
:100F680089B084690023BCF1000F3BD00CF1FF313C
:100F780000270E464FF0060E4FF00A080097CDE9FD
:100F88000413CDE90633CDE90233431D01933B46F3
:100F98009C4529D80FB131460496059B04AE2163C0
:100FA8006363069BA363079BE36300F180033246F8
:100FB800083303CA43F8041C08A943F8080C16466A
:100FC8008A42F4D1029B009A6361039BA361009B50
:100FD800E361D4F8C03023EA0203C4F8C03009B092
:100FE800BDE8F08F6146C3E7019D032B03F10109BA
:100FF80015F8012F019521D80EFB09F3012702FAF4
:1010080003F31E430123009D90F802B093401D4353
:10101800B2FBF8F3009508AD08FB132205EB830A31
:10102800124D02EB420215F80BB05AF8183C0BFAB5
:1010380002F21A434B464AF8182CA9E7043B052547
:10104800B3FBF5FB0BF1010A0BEB8B0B08ADA3EB24
:101058000B0305EB8A0A0EFB03F35AF8105C02FA3D
:1010680003F32B434AF8103CCCE700BFC433050810
:1010780008B5037913B913200EF0F6FCEFF31083CB
:1010880072B642791AB183F310881020F4E701226E
:10109800427183F3108808BD431E012B2DE9F743E5
:1010A800074602D948480EF0E5FADFF8388141F2E0
:1010B8000309464D902000F0EEFB0446012F18BFAF
:1010C800454601460770A0F802903846FFF7B8FD7C
:1010D800A56137F0DDFCE067064633F0B5F8484512
:1010E8003B4B94BFB608F608013E9E4205D93846E8
:1010F8002146FFF7BDFD3748D5E7374B3749D3F8C9
:10110800D82042F02002C3F8D820D3F8D830344A87
:1011180003F020030193019B9368A86808420ED14D
:101128009268D0060BD1294A9268D8F808100A4369
:10113800D1070BD503F47C13B3F5403F06D03846EE
:101148002146FFF795FD10200EF08EFC08234FF482
:101158004032012604F11808C4E907230423404655
:10116800A6852663C4E90963002384F83430E36460
:1011780084F85030C4E90F33C4E9113333F076FCF6
:1011880040B12046FFF7A4FE38462146FFF770FD20
:101198000520D9E740F2FF724FF00111404633F0C5
:1011A80067FD0028EDD16860E864EB6823F00473FC
:1011B800EB6028666866A866E86642F0A1F92046F2
:1011C800267103B0BDE8F083FECF0408002002407A
:1011D800FF502502B8D00408004402580D000080D2
:1011E800002302400021024003792DE9F041044622
:1011F80092B0884613B913200EF036FC4378102BB2
:1012080002D12D480EF036FA084644F03FFC038917
:1012180022780546C3F30803013A202B15BF837AC9
:101228000123866811261CBFC3F38203C6F3443624
:10123800D340DB0713D56FF004006178631D001BF2
:10124800C21891420DD82046FFF712FF2046FFF73B
:101258003FFE60B92046FFF707FE6E20CCE717482F
:10126800D0E713F8012FB242EAD11548CAE7684619
:1012780000F0B8FA0746C8B921464046FFF706FD10
:1012880000F086FA3B463A460321284642F06AF9BE
:10129800637820465A1C234462709E71FFF75CFEF7
:1012A8002046FFF7E1FD12B0BDE8F0812046FFF7C8
:1012B800DBFD019800F0AEFAE5D00408F8D0040888
:1012C80009D10408032970B504460E46154608D806
:1012D800012A09D0043A1C2A03D80F4BD340DB0754
:1012E80002D40E480EF0C6F92046FFF7C1FE20468C
:1012F800FFF7EEFD28B92046FFF7B6FD6E200EF089
:10130800B3FB2046A670E570FFF726FE2046BDE831
:101318007040FFF7A9BD00BF11100010E9CF040805
:101328002DE9F04F037995B005460291002B00F0A6
:10133800C1804378002B00F0BF80EFF3108372B6B2
:10134800427902F0FF0132B183F310881021084678
:1013580015B0BDE8F08F0122427183F31088402256
:10136800846904A831F0D8F8FFF786FD534B074687
:10137800D3F8008037F08CFBEB6F98422BD1504BA1
:101388009A68504B1340B3F5403F24D1E36844F2C8
:10139800080223F07F4323F47E0323F4134323F04E
:1013A800E003934217D12669474B1E4013D1226BA5
:1013B800D5F880309A420ED1626BD5F884309A42C3
:1013C80009D1A26BD5F888309A4204D1E26BD5F8DE
:1013D8008C309A4203D02846FFF746FDB6E7322301
:1013E800B8FBF3F8A368D90710D504F108034FF048
:1013F80000090393E97849451FD8687804ABB042DF
:101408004DD800212846FFF72FFDA0E701222046EE
:1014180022601146A3681343A3603B46CDF80080C1
:10142800FFF736FD0028E0D16E21A3685B07E9D5F8
:10143800A36843F01003A360E4E73B4600220421BD
:101448000398CDF80080FFF723FD0028ECD01C237B
:101458000DF1100B4FF0000A2360A36843F004035A
:10146800A3606B78534502D809F10109C2E73B46EE
:10147800012204212046CDF80080FFF709FD00284D
:10148800D2D02368DA0613D4236C0AF1010ADBF8F8
:101498000020C3F30B0313444BF8043BE1E753F874
:1014A800042B029CB2FBF1F224F816200136A6E7C1
:1014B8000521BAE713214AE7162148E7040000246A
:1014C800002302401F003F00010000F0037910B51F
:1014D8000446CBB1FFF7CCFD2046FFF7F9FC28B94D
:1014E8002046FFF7C1FC6E200EF0BEFA002320460E
:1014F8002371FFF715FC20782146FFF7B9FB20463A
:10150800BDE81040FFF7B0BC10BD037970B50446C4
:1015180083B18369002606715E60FFF7D9FC054632
:101528002046FFF7FDFB21462078FFF7A1FB6671F7
:10153800284670BD0125FBE72DE9F04F95B00C4614
:101548009346019044F0A2FA8046204644F09EFA61
:10155800064698F809000022C0F34300824202D3ED
:101568005D480EF087F8D8F8103003EB021999F8A7
:1015780009307BBB99F80AA00AF1FF31042902D986
:10158800BAF1080F26D199F80B1009BB757A00211A
:10159800C5F34305A9421DD2376907EB01177B7ACA
:1015A800D3B997F80AC0D44516D197F80BC0BCF147
:1015B800010F11D11C2000F06EF9BAF1020F054697
:1015C800C0F808A080F80CB008D14FF0FF320CE04A
:1015D8000729DBD00132C1E70131DBE7BAF1050F9A
:1015E8004FF6FF7208BF4FF0FF3250466A6042F074
:1015F80059FFAE61C5E9040802A800F0F3F8A0BBE2
:1016080029465046FFF772FA2A69126812F0010B50
:1016180002D010200EF028FA29460198FFF736FB71
:1016280020462946FFF732FB00F0B2F8504642F058
:1016380043FF2C690323C4F800B0C4F804B0C4F80D
:101648000CB0C4F820B0A36040F20113A3616B682A
:10165800C4F81CB0C4F868B0C4F828B0E3621F4BE3
:101668009C420CD10023236318E02846FFF758FB5F
:1016780050462946FFF7D6FA039800F0CBF8184BE6
:101688009C42EFD003F570539C42EBD003F5806386
:101698009C42E7D003F580639C42E3D04FF0010AF7
:1016A800002340460221C4F814A052462361636215
:1016B80099F8083041F056FF3B7A304652460221ED
:1016C80041F050FF112328462362C4F800A085F892
:1016D8000DA015B0BDE8F08F1CD104080000014032
:1016E8000004014030B5EFF3108272B6437B1BB99A
:1016F80082F31088132030BD03691C68E40703D403
:1017080082F310880520F6E75C6A03684568E31AE7
:1017180004602B4082F31088426854080134A342C5
:1017280008D024BF01329B1A027B02B15B42002021
:101738000B60E0E72220DEE738B5437B0446EBB1D7
:10174800036900251A682946457322F00102406999
:101758001A602A461D629D602B4641F003FF294608
:101768002B462A46A06941F0FDFE2046FFF7D8FA2D
:101778002146A068BDE83840FFF754BA38BD0000DC
:10178800024B5A6902605861002070474C010024DE
:10179800024B5A6912685A61704700BF4C01002415
:1017A800024B9A69C0E90021986170474C010024F6
:1017B800044A93691968916110B15A68184610472C
:1017C800704700BF4C01002438B50446044DAB698E
:1017D8000BB1A34200D338BD0120FFF7E9FFF6E7BC
:1017E8004C010024C460056146618761C0F81C8013
:1017F800C0F82090C0F824A0C0F828B0C0F82CD0B9
:1018080080ED0C8B80ED0E9B80ED10ABC0F808E0EE
:10181800FFF7B6BF124D6C6908B50CB940F016F960
:1018280060602046FFF7D0FF23686B612046C468DC
:10183800056946698769D0F81C80D0F82090D0F8EF
:1018480024A0D0F828B0D0F82CD090ED0C8B90EDD7
:101858000E9B90ED10ABD0F808E00120704700BF58
:101868004C01002410B50021044600F0DFFA18B935
:1018780014B120460DF0EAFE10BD002100F0D6BAE2
:1018880010B50121044600F0D1FA18B914B1204668
:101898000DF0DCFE10BDFFF7E5BF10B501220C46C8
:1018A80000F0EAFB18B914B120460DF0CFFE10BDC8
:1018B80000F0E2BB00F0A2BB2DE9F0414FF0030CB1
:1018C80000252A4C8646D4F86C04002101310EEB21
:1018D80001039A0803F00303825C5B0042FA03F3F6
:1018E80003F00303022BF1D0D4F87804090100EBCC
:1018F8000E104FEA910E61B300EB8E0E03681A07C3
:1019080024D1D4F87824991A9A424FEA9116C1F34F
:1019180001124FEA111119D8D4F87C7452009F4271
:1019280014D9D4F86C740CFA02F8BB5D43FA02F2CD
:1019380043EA080302F00302012A07D13F2DBB55F1
:1019480004EB45030CD80135A3F88C14043070451A
:10195800D4D145B1013D04EB4503B3F88CE4B2E7BB
:10196800C4F88824F2E7BDE8F08100BF4C010024E8
:1019780030B51D4C0122D4F87834D4F87454C01A08
:10198800C109C0F302134FEA101C9A406B5C4FEA7E
:101998009C0E23EA02036B548309D4F880240325A0
:1019A800B2EB901FD4F86C040CF0030288BFC4F8A3
:1019B8008034C15C52000CF1010C05FA02F30CF002
:1019C800030221EA0301530000F80E104FEA9C0EAF
:1019D800D4F86C0410F80E1041FA03F303F0030373
:1019E800022BE7D030BD00BF4C01002421F00F01CD
:1019F800174A38B50B1A174C0546013BC4F87C1436
:101A0800C4F86C04DB00A2FB03235B0A9A00C4F849
:101A18007034A1EB8311013307321D44C4F87814E4
:101A280003EBD2020021C4F8745430F075FD002392
:101A380001204FF0FF31C4F880342381A4F80C054D
:101A4800C4F81035C4F81415C4F8843438BD00BF80
:101A5800F32C23FA4C010024024A13890233138120
:101A6800704700BF4C010024024A1389023B1381CE
:101A7800704700BF4C010024024B1889003818BF7A
:101A8800012070474C010024F8B51C4D00222B8919
:101A980005F1080405F57076C5F8882443F00103BC
:101AA800C5F810252B8154F8043F1A0719D1D5F829
:101AB8007824981A93424FEA9011C0F301124FEA22
:101AC80010100ED3D5F87C745200BB4209D2D5F859
:101AD8006C7417F801C04CFA02F303F00303012BEE
:101AE80002D0B442DFD1F8BD032393404CEA030C83
:101AF80007F801C0FFF7E0FEF3E700BF4C01002440
:101B080071B3F8B50F46051F0024164E55F8043F6B
:101B18001A0719D1D6F87824981A9A424FEA901CD5
:101B2800C0F301124FEA10100ED8D6F87C145200F8
:101B3800994209D9D6F86CE41EF80C1041FA02F360
:101B480003F00303012B03D00134A742DED1F8BD13
:101B58000323934019430EF80C10FFF7ADFEF3E78B
:101B6800704700BF4C0100242DE9F043614C83B05D
:101B7800D4F88834D4F86C14C3B1D4F87034002580
:101B88009800C4F8885488B10026B30806F0030208
:101B9800CB5C5200134103F00303032B20D0013622
:101BA8008642F2D3D4F88834002BEAD1D4F88434AE
:101BB8004FF0000901274FEAD308D4F874344FEAEC
:101BC800C90513F8096046B305F0030316F0010FC1
:101BD8004FEA95024FEA430314D176080135F3E73B
:101BE80030460136FFF768FED4F87034D4F86C1428
:101BF800B6EB830F4FEA8300C7D3D4F88834002BA1
:101C0800BFD1D3E78A5C42FA03F303F00303012B45
:101C180009D0760805F10105D6D1C84509F10103B7
:101C280025D09946C9E7D4F878042B016A4640F2D2
:101C38006241C35800EB05105BB10CF097FE009BA6
:101C48003BB10DF053FFDDE900010DF01FFF0DF072
:101C580063FFEB08D4F8740405F00701C25C07FAC7
:101C680001F122EA0102C254D4F86C14D1E74FF012
:101C7800000C03260227654662460EE0012905D1BD
:101C880006FA03F301252EEA030303700132D4F8A0
:101C980084349A421FD8D4F86C144FEA920E02F09A
:101CA800030301EB920011F80EE05B004EFA03F11A
:101CB80001F0030102291AD00329DFD107FA03F33F
:101CC8002EEA030E80F800E09446D4F884340132FA
:101CD80000259A42DFD923890022C4F884C423F05E
:101CE8000103C4F88024238103B0BDE8F083002DEC
:101CF800EAD0C5E74C010024044B00211A89C3F837
:101D0800881442F001021A81FFF72EBF4C0100240B
:101D1800454B00212DE9F041D3F87C240F46D3F838
:101D280078440E46D3F86C54121BD3F870440B4613
:101D380041604FEA840C0C4681610260C0E90211DF
:101D4800C0E904119A0803F003080133AA5C4FEABA
:101D58004808ACEB030E42FA08F2BEFA8EFE02F017
:101D680003024FEA5E1E012A49D0022A39D0A2BBDB
:101D780001369C4501F101011746866022D09A0878
:101D880003F00308AA5C4FEA480842FA08F202F096
:101D98000302012A02DDBEF1000FD3D0A2F101082F
:101DA800012FB8FA88F84FEA581824D0022F02D128
:101DB8004269013242618269BA4238BF8761B8F12B
:101DC800000F02D1BEF1000FBCD0C2688A4238BFF2
:101DD800C1609C4519D00021B4E79C45CFD10322AE
:101DE800D7E701349C4507F101074460C7D1012FAB
:101DF8004FF00008DAD1026901320261DBE70134F1
:101E08009C45446007D01746B9E724013601C0E96C
:101E18000146BDE8F081076901370761876907B99D
:101E280082610127D1E700BF4C0100242DE9F84366
:101E380000F10F0636093FD06F4C2389E3BBB4F895
:101E48000C250D46E2BBD4F88004D4F87074B8426F
:101E580032D24FF0010ED4F86CC40138013F002192
:101E68006044CCF10108674418E04A1C964257D9EF
:101E780013F00C0F39D18A1C964240F2AC8013F053
:101E8800300F38D10132964240F2AA803F2B25D834
:101E9800511C8E4240F2A980B8420AD008EB0009D2
:101EA80010F8013F9A07E0D013F00C0F18D1012267
:101EB800E2E7BEF1000F25D000231846BDE8F883FD
:101EC800D4F81015D4F81425914226D2D4F88004F9
:101ED800D4F87074874215D99E46BCE70021DBE729
:101EE80013F0300F0CD10122CDE703F03002B2FA23
:101EF80082F25209CAE73F2B8CBF00210121CBE7B0
:101F08000022C3E747F08EFAD4F88004D4F870743E
:101F18004FF0010EB8429ED3CEE747F083FA92E71E
:101F28004FEA8909A9EB0201012A01F1010704D14D
:101F380009F101039B08C4F88034D4F8843407F00D
:101F4800030EB80802314B454FEA4E0E38BF4B46D8
:101F58008945C4F884344FF0010303FA0EF31CF8E2
:101F680000E043EA0E030CF8003012D34FF0020EE3
:101F780001F003038808D4F86CC401315B001CF835
:101F8800008089450EFA03F343EA08030CF8003091
:101F9800EED2D4F810351201D4F8788400213344F5
:101FA8003E01C4F8103508EB0713184630F0B4FAB0
:101FB800EA07034681D50022D4F87404F90807F02B
:101FC800070748F806200122445CBA4022434254DD
:101FD8001846BDE8F8834FEA890909F10109A1E724
:101FE8004FEA890909F102099CE74FEA89090A467B
:101FF80009F1030996E700BF4C010024034B1A8935
:10200800012A02D808B1FFF7B3BC70474C0100247D
:10201800034610F00F001BD1164AD2F878149942E3
:1020280015D810B4D2F87C449C420DD95B1AD2F86A
:102038006C44C3F301119A091B09A25C49000A41C7
:1020480002F00302012A05D05DF8044B704770477F
:102058000020704701301A18910802F00302615CF1
:10206800520041FA02F202F00302022AF2D0000101
:10207800EAE700BF4C0100242DE9F84F0F46064659
:10208800002800F0CC80744D2C89002900F0928043
:10209800002C40F09380D5F878040F31D5F870C43F
:1020A800301A09094FEA8C0A030903F1010EBEEB45
:1020B8008C0F80F0BA80A446D5F86C944FF00108D4
:1020C8004FEA9E040EF0030B19F804404FEA4B0B3D
:1020D80044FA0BF404F00304022C2BD02CB90CF1B5
:1020E800010C0CEB08048C4226D341455ED067D323
:1020F800C4448C4525D2002A60D0C209D5F874148E
:1021080003F007033846895C194101F00101FFF724
:102118008DFE0446002851D04FEA0812314630F0AF
:10212800B7F92B89012B02D83046FFF721FC20464E
:10213800BDE8F88F08F101080EF1010EF245BFD194
:10214800D3E75C1843449C4220D903F00302980863
:102158004FF0020C0133520019F800709C420CFA3F
:1021680002F242EA070209F800200FD903F003023D
:102178009808D5F86C740133520017F800E09C42B7
:102188000CFA02F242EA0E023A54EFD1D5F884343E
:10219800A1EB080206EB081000219C424FEA02124C
:1021A80038BF1C46C5F8844430F0B6F9344620469A
:1021B800BDE8F88F012C01D8FFF7DAFB0024B6E759
:1021C8005C184FF0030CA8EB010104EA0C07A00807
:1021D800012904F101044FEA470719F800E00CFA55
:1021E80007F72EEA070709F8007010D003EB080E6E
:1021F80004F00302A708D5F86C3401345200D95D05
:1022080074450CFA02F221EA0202DA55F0D1D5F847
:1022180080348342CAD93446C5F88004C7E70146EA
:102228003846BDE8F84FFFF701BE0129BED029B1F5
:102238004FF00108002A7FF460AFBFE703F0030303
:102248008009D5F86C1403225B009A400B5C23EAE2
:1022580002030B54DBE700BF4C01002410B58AB021
:10226800044603A8FFF754FD039A0949DDE9043041
:102278000090204600F09AFF2046069C079ADDE968
:102288000831CDE90014034900F090FF0AB010BDF1
:10229800C8330508EC3305082DE9F843DFF85891F1
:1022A80007464749D9F8782400F080FFD9F8701418
:1022B80089006DD00025DFF8448115F03F0633D042
:1022C80005F003067600AB08D9F86C24D35C3341DB
:1022D80003F00303022B63D0032B5FD0012B4AD1F9
:1022E800D9F878242B01D25842455BD0354B9A4215
:1022F8005AD0354B9A425BD0344B9A4256D0344B25
:102308009A4253D0334B9A4254D0334B9A4251D0CD
:10231800324B9A4252D0324B9A424DD0314B9A426C
:1023280014BF68224D2227E0A9421ED9D9F86C04AF
:102338002C4602E001348C4208D0A20804F00303C2
:10234800825C5B0042FA03F39B07F3D0621B7F2A8F
:102358000BD992092449384624F03F0500F026FF9E
:10236800D9F87034B5EB830F12D22A011F493846C9
:1023780000F01CFFA7E72E221D49384600F016FF83
:102388000135D9F87034B5EB830F4FEA830194D344
:1023980038461849BDE8F84300F05BBB6D22EBE70F
:1023A8003D22E9E75422E7E74C22E5E75322E3E739
:1023B8004422E1E74122DFE74222DDE74622DBE76C
:1023C80034340508B47B05085C7305086C8405087B
:1023D8009C8405080C7005088470050804780508B5
:1023E800C8780508287D0508503405086C340508A8
:1023F80074340508303405084C010024E4850508C8
:102408000346064A506A1A684168C1F31E018A42A7
:1024180002D3521A1A6070470068F5E74C0100248D
:10242800014441F20553884204D398B2012838BFC9
:102438000120704703EB431310F8012B5340F2E7D8
:10244800034B044A5A620022C3F8C423704700BFF2
:102458004C010024DCB405082DE9F04781460F46FD
:10246800002942D0FFF7DCFF214B82465C6A0CB999
:10247800204636E094F907300025E668002B06F17F
:10248800FF3616DB013604F11808B54215D3246867
:10249800EDE706EB05083A4648464FEA580808F1C2
:1024A800060354F8231030F09BF80028CCBF4546AB
:1024B8004646731B012BECD8E4E7236933F8153043
:1024C8009A4510D163695B5D9F420CD13A464946F3
:1024D80058F8250030F04CF828B96068C0F31E00A1
:1024E8002844BDE8F0870135CFE70120F9E700BFB0
:1024F8004C0100242DE9F04107460E469046FFF7AF
:10250800ABFF002840F09480FF2E03D949494A4880
:102518000CF090FA494CB8F1000F44D1D4F8C40338
:10252800751CA8B1D4E9F2132B448B422BD942462F
:102538002944FFF7BDF98046D4F8C403B8F1000F69
:102548001AD14246D4F8CC13FFF7B2F9C4F8C483C1
:10255800802DA84638BF4FF080084046FFF78DF918
:10256800C4F8C403B8BB2846FFF787F9C4F8C40306
:1025780080BB28460DF06AF8D4F8C8332B44C4F859
:10258800C8330028E4D0D4F8CC333946324600EBBF
:1025980003082B444046C4F8CC3347462FF078FF55
:1025A800002308F8063031463846FFF739FF8046E1
:1025B800606AD0E90252AA422AD36D000A2D38BFB8
:1025C8000A25C5EBC5001830FFF757F948B9C4F814
:1025D800C403CEE7A8460023C4F8C883C4F8CC33A4
:1025E800D1E700F11802616A02EB8502016002611D
:1025F80002EB450242614A68C968C2F31E020A44F6
:10260800416862F31E010022C0E90115C2606062E0
:102618000169436921F81280911D9E54636A43F849
:1026280021705868D968C0F31E0001311044D96080
:10263800BDE8F0813AD10408F87405084C0100247B
:102648000022FFF757BF10B504462FF0A3FF01463D
:102658002046BDE81040FFF7F3BF0122FFF74ABF4D
:1026680007B5019001A8FFF7CBFE019A036933F87B
:10267800120003B05DF804FB07B5019001A8FFF74D
:10268800BFFE019B4269D05C03B05DF804FB07B54F
:10269800019001A8FFF7B4FE019B063350F8230010
:1026A80003B05DF804FB13B5019001A80C46FFF7D1
:1026B800A7FE019B4269D25C063350F823002260D2
:1026C80002B010BD2DE9F8431D4600230746884691
:1026D800036016460B6013602B60154BDFF85490AF
:1026E8005C6A64B92B68326813442B60BDE8F883D0
:1026F800336812F8010B0133034433600DE04C4595
:10270800F0D03B6801333B60E268D8F800301344EE
:102718006269C8F80030E368D1188A42E8D32046D5
:10272800FFF776FC2B68246803442B60D9E700BFC9
:102738004C010024DCB40508F8B50B4B0B4F5C6A60
:102748000CB1BC4200D1F8BD04F11805E36805EBF3
:102758008306B54201D32468F2E755F8042B0449EF
:10276800044800F023FDF4E74C010024DCB405081C
:102778003FD104086C63050830B50023202511F803
:10278800012F0AB9027030BD120600F101041FD5ED
:1027980013B12023037020460B78124A03F07F03FD
:1027A80063B9013A12F8013F0446013013F0800F73
:1027B8000BD003F07F0323700123E0E712F9014BEC
:1027C800002CFBDA013BDBB2EAE700F8013CE9E761
:1027D800012B04BF057020460B7800F8013B02234B
:1027E800CDE700BF46D1040838B54368054619440B
:1027F8000368994210D9037B1BB1002107480CF0EC
:1028080019F901F11004806824F0070408342146FE
:10281800FFF743F82C60A86038BD00BFF8740508BE
:1028280070B504460E4611461546FFF7DDFF3146E2
:102838002A46D4E9013018442FF05AFE63682B4425
:10284800636070BD012938B538BF012104460025F1
:10285800084621606560FFF705F82573A06038BD5C
:1028680038B505460C460131FFF7ECFF6C6038BD02
:1028780000230160C0E9013201230373704700009F
:1028880038B514460546FFF7DDFF024B2560636047
:1028980038BD00BF29280008037B10B5044613B9CA
:1028A8008068FFF707F80023A36010BD38B5054618
:1028B8001020FEF7D7FF04462946FFF7C3FF20463E
:1028C80038BD10B5044648B1037B13B98068FEF7DC
:1028D800F1FF2046BDE81040FEF7ECBF10BD000038
:1028E80038B5037B04460D461BB1002106480CF0A1
:1028F800A1F8016880682944FEF7CFFF2368A0602B
:102908001D441844256038BDF874050838B50446D8
:102918000D46FFF769FFD4E901301D44184465608E
:1029280038BDD0E9002310B59A42044602D10121EE
:10293800FFF7D6FF0021D4E90132D154A06810BDB9
:1029480010B50C460121FFF7E1FF047010BD7F2987
:10295800F8B50C46CEB204D80121FFF7D7FF0670B0
:10296800F8BD06F03F06B1F5006FC1F3871546F0D4
:10297800800607D265F03F050221FFF7C7FF4670C2
:102988000570EDE705F03F05B1F5803FC1F3073766
:1029980045F0800508D267F01F070321FFF7B6FF4F
:1029A800457007708670DBE7A40C07F03F07042129
:1029B80064F00F0467F07F07FFF7A8FF85700470C5
:1029C8004770C670CCE738B505460C4608462FF068
:1029D800E1FD214602462846BDE83840FFF720BF02
:1029E800F8B5476804461646B94228BF39460D4629
:1029F8001146FFF7F9FEA368A8197A1B591918445C
:102A08002FF076FD6368A068334428446360F8BDFE
:102A180043688B422CBF591A00214160704738B572
:102A280004461546084662688A4203D929448A4200
:102A380001D8606038BDA368521A184419442FF0B1
:102A480057FD63685B1B6360F4E70846114630F086
:102A58002FBD70B5054608460E462FF09BFD04466F
:102A680020B102466B68314628689847204670BDF9
:102A78002DE9F74F8A469DF8301091460D9A11F0CE
:102A8800DF0F0746A2EB090551D0302953D1C3F314
:102A98004721002953D05F290BBF052604262C485F
:102AA8002C4892FBF6F106FB112109B901350132D8
:102AB800711E92FBF6F406FB14228A1A00EB020838
:102AC80013F020023ED005EBD573A5EB63045D102F
:102AD800002D3BDDAB465E4532467B684146A8BFCC
:102AE8005A46386801929847019AABEB020BBBF142
:102AF800000FF0DCB9F1000F05D04D447B684A4661
:102B0800514638689847002C0DDD2544A642B14649
:102B18007B684146A8BFA1463868A4EB09044A4629
:102B28009847002CF2DC284603B0BDE8F08FDFF8A8
:102B380028801026C4E70DF130080126C0E7DFF829
:102B48001C80F6E713F00104C2D02C460025D1E71B
:102B580080630508856305088B63050874630508A9
:102B68002DE9F04F924693B0CA0780460D461C9C4B
:102B78009DF874900593DDE91E760BD48B0703D17D
:102B880009687C4B994205D028460DF00FFE450098
:102B980045F0010514F0210306D1B9F1300F03D136
:102BA800B742B8BF37461E4628460DF1280B11F02C
:102BB80013F800281CDBA00716D52B238DF8283026
:102BC8000DF1290322079DF814101FD5BAF1020F41
:102BD80010D14FF0300C184600F802CB01F1010C6F
:102BE80083F801C0034611E0610701D52023E5E71A
:102BF8005B46E7E7BAF1080F5BD130201870200672
:102C080049BF01F10E0001335870023300200EAAAB
:102C1800012E1870A3EB0B030B924FF010020693D2
:102C2800C4F34723C8BF14438DF82700CDE90C200F
:102C380014F01002CDE90213059245D02B460DAAD7
:102C48000CA9CDE900A00BA810F094FE03788246E9
:102C58002D2B06D18DF8273000F1010A0D9B013B81
:102C68000D93012E7ADD0D9D059BB542B8BF354603
:102C78002BB19DF8273003B10135069B1D4424F084
:102C88000103AF42079371DD14F00109A7EB0505B5
:102C98006DD1202301954A463749009340464B465B
:102CA8004D46FFF7E5FE0446059B4FF03009C3B9D2
:102CB80036E0BAF1100FA9D14FF0300C184600F8E1
:102CC80002CB01F1170C8BE70AAB0DAA0CA90BA8D4
:102CD800CDE900A32B4610F04DFE8246C1E7002542
:102CE8002C469DF8273053B1002301220DF127010E
:102CF8004046013FCDE90032FFF7BAFE0444069B87
:102D08005BB10023012259464046CDE90032069ABC
:102D1800FFF7AEFE069B0444FF1A012ED8BF3E46BD
:102D2800079B51460D9A4046CDE90096FFF7A0FE55
:102D380004444DB1202310494046019500930023D7
:102D48001A46FFF795FE04440B980EAB984201D043
:102D5800FEF7B0FD204613B0BDE8F08F059B079441
:102D6800002BBCD11D461C463E46D9E70025002451
:102D78009AE700BF8C7A0508422505082DE9F0433B
:102D88000746900798468DB054BFC2F380032B23A3
:102D9800164603A858BF5B010A464FF02101DDF82B
:102DA800509058BFDBB20093159B0AF0B5FCF205B2
:102DB80004461FD52E2103A82FF03EFCD0B965216B
:102DC80003A82FF039FCA8B96E2103A82FF034FC12
:102DD80080B9631C04F130022E2102346A44303376
:102DE80002F8241C6B44302203F8242CA3186B44EB
:102DF80003F8240C73060ED504F13002631C00217D
:102E08000DEB0204252204F8242C03F130021C46A1
:102E18006A4402F8241C16F010051DD09DF80C30E9
:102E28002F2B4FF0000319D8012203A9384609F1C6
:102E3800FF39013CCDE90032FFF71AFE0DF10D0113
:102E48000546334622463846CDE90089FFF710FE8D
:102E580028440DB0BDE8F08303A9F2E703A91D4695
:102E6800EFE700002DE9F04F81468BB014464FF094
:102E780000080B461D4613F8012B0AB1252AF9D183
:102E8800A94208D26E1AD9F80430D9F8000032469F
:102E9800B044984729460B78002B00F07F81202307
:102EA8004A1C00270393134613F8016B3EB12D2EDD
:102EB80025D01ED8202E29D02B2E24D0002615460A
:102EC80012F8013BA3F13001092922D92E2B46D152
:102ED8006B782A2B23D00023154612F8011BA1F189
:102EE800300009281ED80A2000FB031BABF1300371
:102EF800F2E7302EE2D147F01007039601E047F0E1
:102F080001071A46CFE747F00207FAE747F0040738
:102F1800F7E70A2101FB0633A3F13006CFE70235B4
:102F280054F8043B23EAE37B2B786C2B08BF01356C
:102F38002978002900F03281782906D8572911D834
:102F4800472959D8442900F21C81D9F804300122B4
:102F58002946D9F8000008F10108984785E04FF0A4
:102F6800FF3BE1E7A1F15803202BEED801A252F86C
:102F780023F000BF05300008532F0008532F000826
:102F8800532F0008532F0008532F0008532F000811
:102F9800532F0008532F0008532F000859300008FA
:102FA80083300008053000088B3100088B31000899
:102FB8008B310008532F0008532F0008532F0008A7
:102FC800532F0008532F0008532F0008532F0008D1
:102FD800532F00080530000899300008532F0008C7
:102FE800C1300008532F000805300008532F00088F
:102FF800532F0008053000085029A6D101F0DF033F
:1030080054F804CB502B604668D164296AD1BCF1CE
:10301800000F80F29D802D23CCF100000A228DF84C
:10302800173051230DF1280A0A3B0DF1180B86467B
:10303800B0FBF2FC02FB1C01604609298CBFC918D1
:1030480030310AF8011DDA455CD07245EFD959E0F4
:1030580054F8043B019653B1039B04225149009351
:103068003B464846FFF704FD8044691C01E7039B83
:1030780005224D4900933B46F3E754F8043B0122EF
:1030880006A901968DF81830039B00933B46E8E7A4
:1030980006A954F8040BFFF706FBBBF1FF3F0146F6
:1030A80004D0069B9B4538BFCDF818B0039B069A01
:1030B80000933B460196D4E754F804AB50462FF0F2
:1030C80069FABBF1FF3F024602D0584528BF5A466D
:1030D800039B5146019600933B46C2E7642996D06C
:1030E80075292FD021F00F0300220F3B8DF81720F0
:1030F8001022DBB2BCF1000F94D130230DF1270A66
:103108008DF8273017F0100B9DF817302DD0002BB5
:1031180035D0039B01220DF11701484600933B4629
:103128000192013EFFF7A4FC8346039B0AAA51467D
:1031380048460093A2EB0A023B460196FFF798FC2B
:10314800584491E700230A228DF817306123D1E70C
:10315800BB0705D52B238DF817300A225123C9E761
:10316800C7F380035B01DBB2F5E7002BDDD006AACD
:103178009245DAD90AF8013C0AF1FF3AD5E79B46AD
:10318800D3E70734039B3A46484624F00704CDE9C1
:10319800006BB4EC020BFFF7F1FD65E740460BB09E
:1031A800BDE8F08F3B060508400605080EB403B5D8
:1031B80003AA52F8041B0192FFF754FE02B05DF80F
:1031C80004EB03B070470346007893F90020002A07
:1031D8000ADA00F07F004022104206D113F8012FCE
:1031E80002F0C001802904D0704720EA020052088A
:1031F800F2E702F03F0242EA8010EFE7431C18466C
:103208000133027802F0C002802AF8D070470346E2
:103218000020994200D8704711F8012D02F0C00231
:10322800802A18BF0130F4E7034601440020994280
:103238001A4600D870471278013302F0C002802A7B
:1032480018BF0130F3E700007F289DBF024B185CD0
:10325800C0F34000002070479B6305087F289DBF8E
:10326800024B185CC0F3C000002070479B63050840
:103278007F289DBF024B185CC0F380000020704778
:103288009B6305087F289DBF024B185CC0F3801024
:10329800002070479B6305087F2809D8064B1B5CF4
:1032A80013F00C0F06D1A0F15F0358425841704744
:1032B80000207047012070479B6305087F289DBF49
:1032C800024B185CC0F30010002070479B63050890
:1032D8007F289DBF024B185CC0F340100020704748
:1032E8009B630508024608B5FFF7E8FF02EB4010AC
:1032F80008BD08B50246FFF7EBFF404220F01F006B
:10330800104408BD3038092884BF20F02000073851
:10331800704730B50A440024E5258A4203D8B4FA38
:1033280084F0400930BD11F8013B34B103F0C0030B
:10333800802B11D1013CE4B2EFE758B9BF2B09D972
:10334800F72BEFD8DB0803F0060345FA03F303F085
:103358000304E2E71B06E0D50020E3E702398142D7
:103368000B4603D31A880239002AF8D00233181AF8
:1033780040107047B2EB131F70B504464FEA1310A4
:103388001BD901EB4001101A03F00F032646024631
:10339800012A01F102010CBF31F8025C51F8025C0C
:1033A800013A25FA03F526F8025BF1D104EB400453
:1033B80034F8023C03B9013870BD0020FCE7F0B5D1
:1033C800059C0025121B2E46AC420FD101EB44038D
:1033D800174600EB4404411A9FB904EB420316B1A7
:1033E800023324F81260181A4010F0BD31F8157035
:1033F80033F815C067443E4420F81560360C013593
:10340800E2E71D88013F35445D522E0C0233E3E7A5
:10341800F0B4049F00260D463446D11BB7420BD1A9
:1034280005EB47030A4600EB4707451B7AB907EB4C
:103438004101F0BCFFF792BF35F816C033F81620EB
:103448006444A41A20F8164024140136E6E71E88BE
:10345800013A34445C5324140233E7E72DE9F0437E
:10346800079C0239DDF828E0154684464FF6FF78B8
:10347800A4EB0209DDE9087655B900EB42011FB15A
:103488000123023120F81230BDE8F043FFF766BF90
:1034980031F8024F013D4444264405EB0904A54296
:1034A8002ABF33F8024B4FF6FF744444744486EA4B
:1034B800040E360C17FA8EF74FEA144E2CF8027BDE
:1034C8003F0CD9E7022938B538BF02210446806885
:1034D8000D4618B12368B1EB930F07D96900FEF7C1
:1034E800DCF92368A06065F39F03236038BD38B515
:1034F80004460C20FEF7B6F9054623682278C3F384
:103508009D0023F0030302F00102400013432B60E7
:1035180063686B60FEF7A6F9A8602268A168C2F329
:103528009D0252002EF0B4FF284638BD994210B5CE
:1035380011D313D800EB410002EB410209B9084648
:1035480010BD30F8023D32F8024D1B1B002B02DB88
:1035580004D10139F2E74FF0FF30F1E70120EFE73E
:1035680010B5044638B18068FEF7A4F92046BDE8D6
:103578001040FEF79FB910BD70B50C4602210546F4
:10358800FFF7A0FF002C2B78B5BF01220022614273
:10359800214662F30003AA682B70012388B21446FF
:1035A800090C1E4622F8020B03F10103F6D16E60E6
:1035B800208070BD0023C0E900338360704728B1C4
:1035C80003789B0702D48068FEF774B9704738B552
:1035D80004460D464968FFF775FF2A782378A068E6
:1035E80062F3000323706A68A96862605200BDE84C
:1035F80038402EF04DBF0A4629B90178426062F37F
:10360800000101707047FFF7B7BF08B5FFF7D2FF99
:10361800BDE80840FFF7EFBF920042F0020210B485
:10362800026000225DF8044BC0E901211946FFF74A
:10363800E2BFF8B514461D469DF8187004210646E9
:10364800FFF740FF22462B4627B1002D0CDA6242D5
:1036580065EB4503317867F3000131700021716033
:1036680052EA030102D1F8BD0027F3E7D6E90110B9
:103678004C1C746020F81120120C42EA03421B0C07
:10368800EEE72DE9F84353EC102B1E461546037858
:103698008046F20F62F30003037047F6F07313EAF3
:1036A80016420AD198F8003023F0010388F8003058
:1036B8000023C8F80430BDE8F8839A42F2D0C6F374
:1036C8000A53A3F2FF34002CECDB04D10121BDE83E
:1036D800F843FFF751BFA3F2EF37C6F31306332CB5
:1036E8004FEA271746F4801642DCC4F13402A4F1ED
:1036F8001403C4F1140406FA03F3D54026FA04F4BB
:10370800D6401D4325430024A14639464046FFF7CD
:10371800D9FEC8F80470B9F1000F06D04FEA490283
:103728000021D8F808002EF0F7FEA4B105FA04F23B
:10373800D8F8083023F81920C4F11003103409F11F
:103748000109A3F12002DD4006FA04F426FA02F288
:10375800DE40254315434B469F42ACD0D8F808209D
:1037680022F813502D0C013345EA0645360CF3E7D1
:103778000C34A3F2334304F00F044FEA2319C4E7CF
:103788002DE9F8438F18C2F35B0204460D46511C1D
:103798009846089EFFF796FE2378AC4600221FFA4B
:1037A80086FE68F300032370BC456046626002D35E
:1037B800401BBDE8F88301780CF1010CA1F130033E
:1037C800092B05D9A1F14103192B12D8A1F137030F
:1037D800B342EDD2A06890468146B8F1000F0FD1F0
:1037E80000EB420113B1023120F81230091A4A10D5
:1037F800DAE7A1F16103192BDAD8A1F15703E7E75A
:10380800B9F8001008F1FF380EFB013329F8023B24
:103818001B0CE2E7F8B5044615461E46C1B1531E17
:103828004FF0FF371E44E90020460F310909FFF722
:1038380049FE2378002123F00103616023700B46C1
:1038480045B9A06800EB4101FFF788FD6060F8BD4D
:103858000127E8E700220F2B0ADC3078013D3E44BF
:1038680000FA03F003F1080342EA000292B2F2D12F
:10387800A0680131103B00EB4100616020F8022C88
:10388800DEE738B5057804460B7805F0010203F049
:103898000103981A08D1D1E90132D4E90110FFF7E0
:1038A80045FEEB0748BF404238BD884210B5044684
:1038B80001D0FFF78CFE237823F00103237010BD9D
:1038C800884210B5044601D0FFF781FE63683BB11A
:1038D8002378C3F3000282F0010262F3000323702D
:1038E80010BD88421FB5044601D0FFF770FE62681C
:1038F80062B901212046FFF7E5FD0123A268138084
:103908006360237843F00103237010E02378D9071C
:103918000FD523F00103237001230093A168ADF8AC
:103928000E300DF10E030846FFF772FD606004B01B
:1039380010BD511C2046FFF7C5FD01230093ADF8CB
:103948000E300DF10E03D4E901210846FFF737FDCB
:103958006060D6E74B682DE9F04705460E461446E9
:1039680003B12AB931462846BDE8F047FFF72FBE14
:1039780002F10F014FEA111803EB1111FFF7A2FD35
:10398800A96814F00F044FF0000CD6E9012308BF12
:10399800102408EB020703EB4203C4F1100407F1FB
:1039A800004001384FEA400901EB400011468646C5
:1039B80009BB6FF001032CFA04FCC8F1010809F1F6
:1039C80002095A43831820F802C04FEA480203EB61
:1039D8004803524218462EF09FFD03464B4417B148
:1039E80033F8022D9AB12B786F60327862F30003B6
:1039F8002B70BDE8F08733F802AD01394AEA0C0CA8
:103A08002CFA04FA4FEA0C4C2EF802A9D0E7013F31
:103A1800E5E72DE9FF410D4649680646144601B120
:103A280032B92946304604B0BDE8F041FFF7CFBDB2
:103A3800FFF748FDB768D5F8088023466A68384616
:103A48004146FFF797FC337870600246297861F3A6
:103A580000033370DB070AD5002320096968ADF835
:103A68000E30994201D0834204D181420AD804B071
:103A7800BDE8F08138F813509DB101238142ADF8BB
:103A88000E3012D904F00F04012338F8101003FA8D
:103A980004F4013C214206D1BDF80E30002BE6D0DB
:103AA80003E00133DDE7ADF80E30012312B93B80A6
:103AB8007360DCE7009339460DF10E033846FFF7D3
:103AC8007EFC7060D3E72DE9F3410D465768D1F8C5
:103AD800048014463B46926806464146A868FFF7AC
:103AE80025FD01301FBF23462C4647461D46237837
:103AF8002A785340DB0719D4791C3046FFF7E2FCDB
:103B08006B680093AB68B068D4E90121FFF757FCF4
:103B180070602378327800280CBF002303F001037B
:103B280063F30002327002B0BDE8F08139463046D6
:103B3800FFF7C8FC6B680093AB68B068D4E9012153
:103B4800FFF766FCE4E72DE9F3410F464E68D2F82B
:103B5800048014463146926843460546B868FFF724
:103B6800E5FC01301DBF23463C46B046012618BF80
:103B78001F46237818BF00263A785340DB0719D52B
:103B880008F101012846FFF79DFC7B680093BB689C
:103B9800A868D4E90121FFF712FC686018B1207801
:103BA80000F0010070402B7860F300032B7002B026
:103BB800BDE8F08141462846FFF784FC7B68009306
:103BC800BB68A868D4E90121FFF722FCE5E74B6848
:103BD8002DE9F04F0C465168154685B08B420646D4
:103BE80021BF1946254613461C462B78DB0722D4ED
:103BF800237813F001071ED1FFF764FCB068AD68A5
:103C08003B46D4E9011C99420CD100EB4101FFF776
:103C1800A5FB00237060327863F30002327005B0B0
:103C2800BDE8F08F35F813203CF81340224020F807
:103C380013200133E7E701313046FFF743FC2F78C3
:103C4800237807F00109D5F804C087EA030147F390
:103C58000007B06803F0010AC94343F30003A268F0
:103C6800834601F0010E41F300019BB289B2009333
:103C78000291B9B267460191A968A1F10208616889
:103C8800A1EB0C0103918FB900EB4C01BEF1000FC1
:103C980003D00123023120F81C30FFF75FFB70606E
:103CA80022782B78C2F300021340B4E738F8021FD9
:103CB800013F019B5940039B8944D9198F4225BF75
:103CC80032F8021B009B00995940029B8A4409EA7A
:103CD8000A014FEA1A4A4FEA194959401EFA81F176
:103CE8004FEA114E2BF8021BCDE72DE9F84F4B6830
:103CF8000D465168144606468B4221BF19462C468C
:103D080013461D462378DB0731D42B7813F00107BF
:103D18002DD1FFF7D7FBA06864683B46D6F808C0EA
:103D2800D5E9012EA41A9A4213D10CEB420321467D
:103D380000EB4202ACEB0000A1B903EB4403A3EB98
:103D48000C0358103378706061F300033370BDE8DA
:103D5800F88F30F813103EF8135029432CF813103D
:103D68000133E0E71588013915520232E4E70131E1
:103D78003046FFF7A7FB27782B784FF0010A6168D8
:103D880007F00108B06803F00109A46843F30003D1
:103D980083469BB2A4F1020CD5E901E247F3000582
:103DA8000F46AEEB010EADB22FB900EB4101FFF7A4
:103DB800D5FA0121C6E73CF8024F013F6C40A04408
:103DC8000EEB0704A7422ABF32F8024B1C465C40A0
:103DD800A14448EA09044FEA19494FEA1848E4435C
:103DE8001AFA84F44FEA144A2BF8024BDCE74B68C2
:103DF800F0B50D465168144685B08B42064621BF82
:103E0800194613462C461D4627782B785F4017F035
:103E1800010736D1FFF756FBB068D4E901212478B1
:103E280014F00104D5E9015324D1521BA54212D143
:103E380001EB4503144600EB4505411AACB905EB07
:103E48004201FFF78BFA00273378706067F30003AD
:103E5800337005B0F0BD31F8147033F814C087EA38
:103E68000C0720F814700134E0E71F88013C5F520A
:103E78000233E3E7CDE90277CDE90057FFF7EEFA21
:103E8800E1E701310127FFF71DFB2B78DB4303F046
:103E98000103039323780197DB4303F001030293A3
:103EA8006B680093AB68B068D4E90121FFF7D6FAD4
:103EB800CAE74B682DE9F04F044685B00E46154613
:103EC8000BB1536843B9237823F00103237000230F
:103ED800636005B0BDE8F08F81422DD1FFF707FB85
:103EE800A542064607462ED06B68204671681944DD
:103EF800FFF7E8FA22680021A068C2F39D02520089
:103F08002EF00AFBB368D4F808E00022D6F8049033
:103F18000193F446AB680EEB4908114602936B68AF
:103F28000393039B934233D0ACF10200DDF804B055
:103F38000023CDF800901AE0824206D1FFF7D7FAA5
:103F480005460746D0E70546CEE70027CCE730F818
:103F580002AF53443BF802AB1946029B33F81230C8
:103F680003FB0A130099038001391B0C0091009987
:103F78000029ECD14146881C13B10146A8F800304D
:103F8800A1EB0E010CF1020C013280464910C8E782
:103F9800616038462A7833785340227863F3000208
:103FA800227005B0BDE8F04FFFF7DABA4B6870B57C
:103FB8000546144613B11378DA0706D52B7823F093
:103FC80001032B7000236B6070BD636823B9012166
:103FD800BDE87040FFF7D0BA0846FFF788FA0646F2
:103FE8002046FFF784FA012104462846FFF7C4FA61
:103FF800636883B1A3681B88DB0704D5324629466A
:104008002846FFF756FF0123D4E901210846FFF7A8
:10401800B1F9606038B93046FFF7A2FA2046BDE82A
:104028007040FFF79DBA324631463046FFF741FFF0
:10403800DEE72DE9F04F0C4651688FB09346013109
:1040480005460393FFF73EFADBF804200021A86831
:104058000026013252002EF05FFA2B786E6020465F
:1040680023F001032B70DBF804100131FFF72AFA63
:1040780059462046FFF7ABFA039BD4F80890D4F8CA
:10408800048048464146D3E9013702933A46AB6873
:104098000493029BFFF74AFA002833D10123049ABC
:1040A800606013806B6023786268002A0CBF00216F
:1040B80003F0010161F30003039923709BF80030BA
:1040C80009784B40DB0740F1FD806B682978003B9D
:1040D80018BF012363F300012970002A00F0F28061
:1040E8000BA84FF0FF31FFF790FA0BAA2946284694
:1040F800FFF7E9FC039A214620460FB0BDE8F04FD0
:10410800FFF7E1BC013001D16E60CCE7029B03F1FF
:1041180000423346013A4FEA420A37F812100E04B9
:1041280003F101004ED509EB48014FF0000C9BB29A
:1041380008F101000191CE46C3F11006023129F8B9
:1041480018C0059660608E4540D337F812209A4013
:104158000592029A012A09D907EB0A02C3F1100154
:1041680032F8022CCA40059911430591029A801A27
:10417800049A686000F10040013802EB400207929F
:104188000AF102020992BA1E0892D4F804A0029A0F
:10419800524529D30AF1004A0022C3F110000AF15E
:1041A800FF3A09EB4A0AD14573D96FF000416B68B1
:1041B8002BB15A18049830F81220002A73D06FF0E7
:1041C800004175E04900034689B2A8E7BEF80080BF
:1041D80008FA03F64CEA060C059E28FA06F82EF8AB
:1041E80002CB1FFA88FCAEE7019A0198118832F8D1
:1041F800022C42EA01420599B2FBF1F20999411AEF
:104208000020069186460899069F0E460199B942F4
:104218000DD809880844A8BB079921F80229019AF2
:104228000791023A01920AF1FF326260ADE736F86F
:10423800021FB7F80080994018FA80F841EA1E4E2C
:104248001FFA8EF151431FFA81FC090CA8EB0C0CE4
:10425800C1EB204127F802CB01EB2C40D6E738F818
:10426800021F994041EA1E4EBCF80010394411FA69
:104278008EF10F0C2CF8021B01996145EFD83844D8
:10428800013AC8E70027DDF82080DDF818C0BE46EF
:10429800F2E7BAF8001041FA03F6814032432AF8EF
:1042A80002298AB27FE7013B6B6080E7013B6360CC
:1042B8006368002B3FF4F7AE5A1839F81220002A29
:1042C800F4D0F0E60FB0BDE8F08FF0B51F461378D4
:1042D8000D4685B0D9070446164606D47B68012BDF
:1042E8000BD1BB681B88012B07D1237823F001036E
:1042F80023700023636005B0F0BD01212046FFF75D
:104308003BF9736853B93B78DA07F4D53A46214646
:10431800204605B0BDE8F040FFF7D5BB6B68002B21
:10432800E3D02846FFF7E3F805463046FFF7DFF805
:10433800002306460393CDE901337368B3B1B3682C
:104348001B88DB070AD52A4621462046FFF7B1FD20
:104358003B462246214601A8FFF76BFE0123D6E91A
:1043680001210846FFF706F8706058B901A8FFF761
:1043780026F92846FFF7F4F8304605B0BDE8F040C6
:10438800FFF7EEB82A4629462846FFF792FD3B4636
:104398002A46294601A8FFF74CFECEE7D0E90121BD
:1043A8000346002001EB420210B5914204D31B786A
:1043B800DB0748BF404210BD32F8024D44EA0040D6
:1043C800F3E730B5D0E90124002304EB420294421C
:1043D80006D302780120D20748BF5B420B6030BD8C
:1043E800B3F5004F04D232F8025D45EA0343EEE725
:1043F8000020F4E7037813F0010310B510D1D0E9D9
:10440800012404EB4202944202D301200B6010BD48
:10441800B3F5803F04D232F8020D40EA0343F2E7D5
:104428000020F4E72DE9F84FDDF828E0904604462F
:104438001A460D46C1B10EEB030021784FF0010B6F
:10444800D4E9019341F30001A3F1020A0023C9B2A0
:104458001F461E46B9F1000F08D1B2BBB8F1000FD4
:104468002DD10120BDE8F88F7046E6E73AF802CF73
:1044780010364CEA0747072E02DC09F1FF39E9E755
:1044880094F800C0BBB21CF0010F1FBF6FEA030C09
:104498005BFA8CFC1FFA8CF3CCF3072B5FFA83FCD6
:1044A80022B98C4517D1083E3F0AE4E725B100F848
:1044B80001CC0138013AF6E700F801CBFAE74B40A6
:1044C80083F08003C3F3C010CCE7002D18BF7046FB
:1044D8002EF022F8C5E71046C4E7000000000000EF
:1044E800D0E901329FED0C0B9FED0D6B02EB4303FE
:1044F8009A4205D30378DB0748BFB1EE400B7047FB
:1045080033F8021D07EE101AB8EEC77BA0EE067B43
:10451800B0EE470BECE700BF000000000000000011
:10452800000000000000F0400A292DE9F74F154669
:10453800446814BF04220322804689469DF830A0AF
:104548000D9E0092A4B98DB1013D324615F8011FA8
:10455800134641B930221A70002203F8012F981B24
:1045680003B0BDE8F08F02F8011BEFE73346F1E72F
:1045780064000193B3462046FDF774F92246D8F843
:10458800081007462DF084FF019B304607EB040C0A
:104598003A3BACF102040021A742A6461DD93031AE
:1045A8005C46392988BFC91804F8011B39468C456F
:1045B8008E461DD83846FDF77DF965BB98F8003062
:1045C800DB0744BF2D2304F8013B3346621E9A42A1
:1045D80033D80023A01B2370C2E7BEF800E04EEAE0
:1045E800014EBEFBF9F124F8021909FB11E1D3E7EA
:1045F800BEF800200231002AD9D0BAF1000F08D045
:10460800211A009A914204D10BF102048BF801A0FF
:104618002046A346BDE728462DF0BCFF29185A4678
:104628000B46AB4204D88D4288BF00200444C5E73E
:1046380013F8017D02F8017FF3E71978107803F881
:10464800010B02F80119C2E7D0E9023293423DBFDB
:104658005A1C826018784FF0FF3070470368013B9E
:10466800033310B5044602D84068FDF723F9204605
:10467800BDE81040FDF71EB9F8B50C461F461646B2
:1046880005461020FDF7EEF8054B8460C0E900747C
:104698003444C4606B60034B2860AB60F8BD00BF56
:1046A80051460008654600084268064B9A4207D101
:1046B80003681A68013203D1986801449960704709
:1046C800002070475146000802690A2AF8B50446D6
:1046D8001BD18369013383610123E3610026237DB4
:1046E8000A272361637D2375256EB5B16B1CA26D06
:1046F8002366555D626D934201D366652666237D08
:104708000D2B14D0BDB16575F8BDC369092A04BF66
:10471800073323F007030133DFE7D4E901039847A0
:10472800431CECD0012838BF01200546E7E70A2DD5
:104738002775D9D0E6E7237D002BE4D00A2B18BFD4
:104748000A25E0E701690246272901D0222912D16A
:10475800012024E0137D272BFAD0222BF8D07229D0
:1047680014D1662B16D1507D2728F1D0A0F1220351
:10477800584258417047A1F16200132804D8084BE9
:10478800034113F00100E5D000207047662904D1E9
:10479800722B00E0622B02D1E5E76229F8D070475E
:1047A800EEFFF6FF38B504460D462069D0B10A2859
:1047B80006D10DB1636AB3B12046FFF785FFF4E770
:1047C800FEF742FD0028F7D12369232B08D12046A4
:1047D800FFF77AFF2369002BE7D00A2BF7D1E4E72C
:1047E8005C2B02D00025284638BD237D0A2BF9D141
:1047F8002046FFF769FFDFE7002301212DE9F04F8D
:10480800044685B04364FFF7CDFFA369276A636355
:10481800002FE369A36307DA0723013784F83C30E4
:10482800276205B0BDE8F08F04D00623013F84F865
:104838003C30F5E7002835D039462046FFF7B2FF6F
:104848000523E56984F83C30013DD4E90B3003F1D8
:104858000042013A30F812209542E2D009D8013BD3
:1048680030F81320954218D3DBD0022384F83C306B
:10487800D7E7A16A8B4207D308314900FDF70DF845
:10488800A36A20630833A362E36A5A1CE26220F831
:104898001350236A01332362C3E7226AE362013AB1
:1048A8002262DCE7256915B984F83C50B9E720464F
:1048B800FFF748FF0646002800F00B8284F83C709A
:1048C8002369722B6BD008D8622B0CD0662B70D062
:1048D800B9460025A8460B230DE0753BD3F1000926
:1048E80049EB0309F5E7237D0025722B69D0A8461B
:1048F8004FF001090C2394F83C20002A6AD184F86F
:104908003C30B9F1000F08D02046FFF7DDFEB9F1C1
:10491800020F02D12046FFF7D7FE23692046222B3B
:104928000CBF222327230193FFF7CEFE2369019AA8
:10493800934240F08680237D934240F08280204657
:104948004FF00309FFF7C0FE2046FFF7BDFE35B163
:10495800A36E23B9A44904F16400FEF734F804F106
:1049680040034FF0000B02932169002900F0A88151
:10497800B9F1010F02D10A2900F0A281CB4563D316
:10498800594604F14000FEF743F801212046FFF79D
:1049980009FF2046FFF7D6FE002891D11CE0237DB1
:1049A800622B0DD0662B10D00025B0464FF00109C0
:1049B80091E7237D3546722B08D04FF00008F5E7C4
:1049C8000025B0464FF0020994E73546B0464FF04F
:1049D800020980E79A4294D0A36E002B3FF421AFDE
:1049E800292104F16400FDF7ABFF236E04F15006A2
:1049F800002B40F06B8103213046FDF787FF2369C8
:104A08000370237D4370637D8370216E3046D4E943
:104A18001A572A46FDF7E4FF2A4639462DF038FD95
:104A28000023A26DA366236E581C2066D15C216109
:104A3800991C03332166105C23662075535C6375EB
:104A4800EFE64FF0010982E7019B8B4209D1194635
:104A580002980BF1010BFDF77AFF2046FFF734FEB1
:104A680082E7002D60D15C2940F027812046039120
:104A7800FFF72AFED4F810A00399B8F1000F6CD004
:104A88000298D346FDF763FFD2E004F1640B2821B6
:104A98005846FDF755FFD4F868A00022216979B17E
:104AA80072BB3A290CD07D290AD0212928D1207D32
:104AB8007238012829D8607D3A2801D07D2824D170
:104AC800D4E91A21881810F8010C3D2809D1A2EB65
:104AD8000A02514404F14000FDF7A2FEA26E013A19
:104AE800A266524558464FF0290104BF042384F8B2
:104AF8003C30FDF725FF2C215846FDF721FF24E027
:104B080021F020005B280AD10132C9B2584603922D
:104B1800FDF716FF2046FFF7D7FD039ABEE75D288D
:104B280008BF02F1FF32F0E77B299CD120460391B0
:104B3800FFF7CAFD23697B2BA7D104F14000039935
:104B4800FDF7FEFE2046FFF7BFFD7B2104F1400084
:104B58004FF0000BFDF7F4FE06E7BAF1780F09D81D
:104B6800BAF15B0F0AD8BAF1220F53D029D8BAF19B
:104B78000A0F23D05C2104F1400082E7AAF15C020D
:104B88001C2A73D8DFE802F046727272728A2A729F
:104B980072723A72727272727272347272720F72C6
:104BA8002D3D37725C004FF00D0B94F83C300B2B09
:104BB80077D1594604F14000FDF7C9FE4FF0000BCC
:104BC8004BE7BAF1550F1CD0D4D8BAF1270F21D032
:104BD800BAF14E0F4AD105480AF01EFF4FF0080BF4
:104BE800E3E74FF0090BE0E78B0605089406050894
:104BF8004FF00A0BD9E74FF00B0BD6E74FF00C0B31
:104C0800D3E794F83C200C2A06D15C2104F140003B
:104C1800FDF79DFED346C8E7BAF1750F14BF4FF0F4
:104C2800080A4FF0040A4FF0000BBAF1010A0AD241
:104C3800BBF5881FB9D34FF0010384F83C30BDE7BA
:104C48004FF0020AEFE72046FFF73EFD22691046C3
:104C58000392FEF717FB002800F04F81039A4FEAF2
:104C68000B1B1046FEF74EFB8344DEE7AAF1300B20
:104C7800BBF1070F3FF67EAF4FF0030A06E0204670
:104C8800FFF722FD2269303A02EBCB0B227D303A46
:104C9800072ACDD8BAF1010AF1D1C9E74FF0070BBD
:104CA80083E7BBF1FF0FC6D80C2BC4D15FFA8BF199
:104CB80004F14000FDF744FE80E7C9B20298F9E725
:104CC800CB453CBF032384F83C3059E6033B2366BD
:104CD8009BE62846FEF7C2FA2169D8B95F2919D0A0
:104CE8007F2917D80846FEF7C3FA002855D123694B
:104CF8002E2B4DD00026834D2F781FB12369BB4240
:104D080040F0A4802046FFF7DFFC002F40F0A6808B
:104D18000123ABE5082304F14005C9B284F83C300F
:104D28002846FDF70DFE2046FFF7CEFC2069D8B9CE
:104D38002846754FFDF7F5FD0025064657F8041B74
:104D480030462DF035FC00281CD10E35EDB2112D62
:104D580084F83C507FF465AD6C4BD3F8D033002B0E
:104D680014BF0E23102381E5FEF778FA40B92069B5
:104D78005F2805D07F2803D8FEF77AFA0028D7D015
:104D8800217CCDE7FFF64DAD0135242DD6D148E580
:104D9800207DFEF76DFA0028ACD021692E292AD192
:104DA8000A2384F83C30002504F140060A273046DF
:104DB800FDF7CDFD2046FFF787FC206900283FF46A
:104DC80030AD55BB20F02003452B26D16521304658
:104DD80084F83C70FDF7BBFD2046FFF775FC2169A0
:104DE8002B2901D02D29E8D13046FDF7B0FD20460A
:104DF800FFF76AFCE1E70923302984F83C30D2D177
:104E0800237D43F02003623BDBB2162BCBD8404D09
:104E1800DD4015F00105C7D1C5E7FEF71FFA28B137
:104E280021692E290DD184F83C70DDE72069FEF751
:104E38001FFA0028F4D123692E2BF1D05F2BD6D08E
:104E4800EFE421F020034A2BCED1ECE7652F01D007
:104E5800632F00D10135013601354DE7212F08D1E7
:104E680023693D2B7FF454AF2046FFF72DFC3923EF
:104E7800FCE42E2F0FD123692E2B02D1237D2E2B5C
:104E880001D05C23F2E42046FFF71EFC2046FFF722
:104E98001BFC0D23EAE40335334615F8027C632F27
:104EA80018D0652F16D01B4AD35C84F83C30543B8D
:104EB800DBB2052B3FF6B5AC012202FA03F313F07F
:104EC8002A0F17D113F0150F3FF4ABAC636A1344E4
:104ED8006362A6E415F8012C01362169914207D1D5
:104EE8002046FFF7F1FB3346652FDCD00235D4E7C7
:104EF800632FFAE7636A013BEAE70123834684F8F4
:104F08003C3052E6460605081C6405084C0100249E
:104F180001204000AC6405087FB501AD0646742049
:104F280085E80E00FCF79EFC0446034695E807005A
:104F380043F8046B002583E8070001236FF00102A2
:104F48001420C4E906320A22C4E90855C4E90A2330
:104F5800FCF788FC2021206304F14000FDF772FC77
:104F6800294604F15000FDF76DFC294604F1640060
:104F78002566FDF767FC236B20461D802561A58209
:104F8800FFF7A2FB2046FFF79FFB2046FFF79CFB9D
:104F98002046FFF731FCA36B012B06D094F83C3078
:104FA800052B1CBF062384F83C30204604B070BD96
:104FB80030B585B0054601AC2046FFF75DFB2846B5
:104FC80094E80E00FFF7A8FF05B030BD30B585B0F6
:104FD8000446014601AD284622F030FF204695E8F8
:104FE8000E00FFF799FF05B030BD10B50446B0B10B
:104FF800C3684068984704F14000FDF74DFC04F190
:105008005000FDF749FC04F16400FDF745FC206BF6
:10501800FCF750FC2046BDE81040FCF74BBC10BD27
:10502800D0E90432013B036152F823007047036959
:1050380042695B1A013B52F823007047F8B5446A8D
:1050480006460D46B4B1D4E900030B44834222D985
:105058000831002201442046FCF72AFC0246B8B970
:10506800616820460831FCF723FC63682360336AD3
:1050780063603462802D2F4638BF802707F108000F
:10508800FCF7F0FB0023076004464360706202E00F
:1050980023682B44236060680834054444F8045CA2
:1050A8002044F8BD38B50D460C211446FFF7C6FF5D
:1050B8004FF49D720560C0E9012438BD38B5D0E9C8
:1050C800033204460D469A4208D3103340699900CA
:1050D800FCF7E3FBE36860611033E360D4E9043272
:1050E800591C216142F8235038BDF8B504461D46C5
:1050F8000F461646D0E90003834208D31030C1009A
:10510800A068FCF7CAFB2368A06010332360D4E9C9
:105118000103421C626003EBC00253F8301067F3CE
:10512800170143F83010D6705560F8BD10B4846983
:10513800CAB20023616B5DF8044BFFF7D6BF0000CD
:10514800F0B593B004460E46174668461D46FCF770
:1051580049FB10B1002013B0F0BD3A463146204655
:105168000AF092FA0446FCF713FBA30703D122685E
:10517800024B9A42EED001202C60ECE770710508D2
:1051880010F00102034604D040F001030B60012037
:105198007047A8B110F0030013D11A793A2A11D137
:1051A8009B6813F001000B60F1D19A070AD11868C7
:1051B800054B9842EBD0054BC31A584258417047EB
:1051C80070471046704700BF8C7A050804780508B8
:1051D80010F001021CD110F003030CD000F00F03F3
:1051E800062B15D00A2B11D100090D3803288CBFC6
:1051F80000200120704770B102793A2A08D02D2A80
:1052080008D18068B0FA80F04009704710467047AE
:105218000120704718467047C20702D540F00100C8
:105228007047830710D0030900F00F00062803D148
:10523800D80040F002007047A3F10E00022809D8F8
:10524800064B53F82000704730B103793A2B03D14D
:10525800806870470248704702487047D86405085C
:1052680074810508A885050838B505460C46FFF77A
:10527800AFFF38B12846FFF7CFFF0BF0E1FB031B68
:105288005842584138BD2DE9F0410F4605461446AD
:10529800114689B9204613F027F9014600F108089C
:1052A800A4B90A4628463946FFF7FCFE01462846B7
:1052B800FFF704FF012007E001392846FFF7B7FE92
:1052C800FFF786FF0028E4D1BDE8F0812846013CBD
:1052D800FFF7A6FE0646FFF79FFF48F82400002EBA
:1052E800DED0B307DCD1686A00F108039E42D7D349
:1052F800426813449E42D3D273681B0A0233A2EB5E
:1053080083024260CCE70000F7B5866905460F4680
:1053180096F83C20A2F10803042B52D8DFE803F0EA
:1053280003232B384C00D6E91110FDF789F9902F8B
:1053380004460ED1C100002205F1280041F0020107
:105348000AF02EFF28B14268D3071CD542F00100AD
:1053580002E0200140F002000146284603B0BDE803
:10536800F040FFF7ABBE00223346D6E9111008F033
:1053780051FC0246E8E7009600230122D6E9111005
:1053880008F0A6FD0246716B2846FFF78BFEE3E79F
:10539800D6E911100A2906D8FDF752F930B10001F3
:1053A80040F00600D8E7FDF757F8F7E7D6E91121EE
:1053B800064811F0D7F8E5E7D6E9111011F044F9DD
:1053C800E0E7120142F00A00C6E700BF9C84050826
:1053D80010B5FFF7D5FE50B10B6813F0010007D1E7
:1053E8009A0704D11868034BC31A5842584110BD94
:1053F8000120FCE78C7A05080021FFF735BF012161
:10540800FFF732BF2D2A2DE9F04F044687B08846B2
:1054180016461D460BD10021FFF709FEC0B18307D0
:1054280002D10379922B13D007B0BDE8F08F922AEE
:105438002ED10021FFF7FBFD014648B1870707D1B0
:105448004768FBB2952B18D1013D2046FFF7E8FDD0
:10545800A6F12303DFB2092F00F2F880092B00F22E
:10546800DC80DFE813F0FA00FA00FA002C012C01C6
:105478002C015301FA00DA009D01962BE8D127F0A0
:10548800FF072046FFF7CCFD47F092074F60CBE7B8
:10549800962A13D10135D0E9012303EBC20313F88F
:1054A800153C2D2B40F0BA802A46FFF7ECFE002869
:1054B80000F0B4806368023B6360B5E7A2F11E03A5
:1054C800012B6BD9202A00F09080052AC0D1002139
:1054D800FFF7ADFD0746002800F0A08010F0030A92
:1054E80005D1436803F0FE03562B00F09780012195
:1054F8002046FFF79CFD00F00F03022B40F08E8042
:10550800BAF1000F06D13B795B2B06D1FF68002F5B
:1055180000F08480BB0740F081803B792C2B7DD143
:10552800BB6803F00F02022A78D11B09482B75D1FA
:10553800FB68002B72D013F0030A6FD11A79302A56
:105548006CD1D3F808B04FEA10195846FFF740FE5F
:10555800002840F00081B9490190B9480DF0BCF924
:10556800A1690546019B3A6809680DF097FA284633
:10557800FCF750F91E2E0AD1FFF741FF18BB384639
:10558800FFF73AFF00B9CB460BF1FF390BE0FFF705
:1055980033FFC0B93846FFF732FFF3E705F1FF39AB
:1055A8008DB1AB46AA460AF1FF3A20465146FFF7AD
:1055B8003EFD236962690746A3EB0B0342F823000B
:1055C800BAF1000FD6D10021894509D1A5EB09050B
:1055D800012D3FF429AF362E00F04381332E3EE1F2
:1055E80020460131FFF71CFDEEE70021FFF71FFD04
:1055F8000746FFF701FF68B93846FFF700FF68B1B3
:10560800EA212046FFF70CFD204607B0BDE8F04F21
:10561800FFF754BD4FF48571F3E72B26A91C2046EC
:105628008900FFF70BFD074646EA052300F108014C
:10563800C0F800804360002D40F01C81962E03D1F5
:1056480039462046FFF73AFD3946DDE7922E00F04D
:10565800FF80062E00F00581BDE7691E2046FFF792
:10566800E6FC03A9FFF78CFD0028B7D0022FA5F1AF
:10567800020796BFA6F10D094FF022095FFA89F9D2
:10568800002F09DA002D40F0CD80039AD30740F1AE
:10569800CE8042F00101B7E739462046FFF7C7FC44
:1056A80004A9FFF76DFD002898D003AB4846DDE953
:1056B8000312FFF745FD002890D0013FE0E7691E7F
:1056C8002046FFF7B4FC03A9FFF75AFD002885D050
:1056D800AF1E002FD6DD791E2046FFF7A8FC04A9CF
:1056E800FFF74EFD00283FF479AF39462046FFF713
:1056F8009EFC03AB00092438DDE90312C0B2FFF7B2
:105708001FFD00283FF46AAF023FE2E70021204670
:10571800FFF78DFC03A9FFF733FD00283FF45EAFC8
:1057280001212046FFF783FCC0F3071003993328B3
:105738000BD1C80707D48A077FF450AF0A68414BDA
:105748009A427FF44BAF022001E03F38C0B209F023
:10575800CBF9039096E758464FEAC901FFF75CFD7D
:105768000746012241F0020104F128000AF018FD61
:1057780047604846FCF78BFF037820465F2B08D12B
:10578800FFF74EFC2046D04655460826FFF748FC52
:105798005EE6FFF745FC59462046FFF78FFC3DE7DC
:1057A80001212046FFF743FC00F00F030746022BB8
:1057B8007FF414AF00212046FFF739FC00283FF49E
:1057C8000DAF10F003027FF409AF0379322B7FF499
:1057D80005AF3909D0F808901B48C90041F002010B
:1057E8000AF0DEFC00283FF4F9AE04AA4FEA1911CA
:1057F800406809F0BBF8049B002B3FF4EFAED907D3
:105808000AD49A077FF4EAAE1A680E498A4203D08E
:105818000E498A427FF4E2AE059A002A7FF4DEAE92
:1058280003932FE72046013DFFF7FAFB2AE72946B5
:105838002046FFF737FC0146E6E600BF21070508CA
:10584800B07405088C7A0508E4640508047805082E
:10585800D4E9012303EBC20313F8053C2D2B7FF495
:10586800DDAE2A4641462046FFF70DFD00287FF4AD
:10587800DBADD3E6013D2046FFF7D2FB41F825001A
:10588800D9E600BF0346006830B550B184070AD195
:105898004468E5B28D4206D100F10803200A13607E
:1058A80030BD0346FBE70120F9E700002DE9F04F82
:1058B800A94B97B00D460024029005A80192CDE9A6
:1058C8000731A649FBF76CFF40234FF40070CDE980
:1058D8000934FBF7C7FF20230B908020CDE90C3457
:1058E800FBF7C0FF2146CDE90E0513A8CDE9114409
:1058F8000AF020FC019B002B48D0022B0CBF3F2252
:1059080022460023696B09A8954FFFF7EEFB002399
:105918000A9C002C00F06481013C0B99914801EB32
:10592800C40251F834100A94D678C1F3170A8E4984
:10593800632E526811F806B08C490BF00F09895D87
:1059480088BF41F4807100EB41080BF03001102949
:105958001ED020294BD0002B00F01B81B9F1020F7B
:1059680040F00A81012A40D000211BF0010F02F10A
:10597800FF3306D0B8F802003840B0F5805F08BFA2
:105988005308012B40F0E580E1B1E2E03D22B8E7A1
:1059980002B1BBB108EB420825E0C34638F8023B28
:1059A80003EA0701B1F5805F0ED195F83C10C3F307
:1059B8000B03994216D109A83146FFF7A5FC2846E2
:1059C800FEF71AFF0023A3E7531C4B4504D23246C7
:1059D800514609A8FFF789FBBBF8001009A8FFF793
:1059E800A5FBEFE701329145D7D8012390E773B1C2
:1059F80002F10043013B38F813303B40B3F5405FF8
:105A080021D1002109A80392FFF758FB039A08EB5C
:105A1800420491452BD8019B83B1052E0ED100215C
:105A280009A8FFF704FB48B9012109A8FFF7FFFA05
:105A3800830744D000F00F00022845D1002408EB6A
:105A48004903A1465AE0012ACFD995F83C30062BE4
:105A580040F0F480464947480CF03EFF04460023D6
:105A68006A6B29680DF01AF82046FBF7D3FE0394F9
:105A780034F8021B01EA0700B0F5805F16D1C9B2FD
:105A880095F83C0088420ED1082805D1314609A86E
:105A98000392FFF739FC039A28460392FEF7ACFEFF
:105AA800039A0132B5E7002A9FD0CEE7531C51462E
:105AB800324609A8FFF719FB039B19888EE70028CF
:105AC800BCD003793A2BB9D109A8FFF7A9FA09A8DC
