:020000040800F2
:10000000F8FF072411050008332A0408212A0408F0
:10001000352A0408412A04084D2A0408000000007B
:10002000000000000000000000000000592A040841
:100030005B2A040800000000B1400408C94004081D
:1000400099020008CD2A0408DF2A0408E52A0408DA
:1000500055B4040899020008F9A80408FFA8040888
:1000600005A904080BA9040811A904085568040887
:1000700065680408756804088568040895680408BC
:10008000A5680408B568040899020008BB9604082E
:1000900099020008C19604089902000817A90408EB
:1000A000F92A0408FF2A0408052B04080B2B04086E
:1000B0000F2B0408152B04081B2B0408956F04084C
:1000C000B16F0408CD6F0408E96F0408497A040889
:1000D000557A0408A72B0408AD2B0408B32B040899
:1000E0003BA90408D32A040800000000712B04086F
:1000F000772B04088F2B0408892B0408C568040893
:10010000990200081DBE0408212B0408617A040826
:10011000B92B0408BF2B0408392B0408412B040811
:10012000D5680408E5680408F5680408056904084A
:100130001569040899020008D92A040899020008E0
:1001400000000000000000000000000000000000AF
:10015000256904083569040845690408C52B0408A5
:100160009902000899020008990200089902000803
:100170009902000899020008990200080000000096
:100180009902000899020008CB2B0408D12B04081F
:100190006D7A040899020008990200089902000883
:1001A00099020008990200089902000899020008C3
:1001B00099020008990200089902000899020008B3
:1001C00099020008990200089902000899020008A3
:1001D000692A04085D2A04089902000899020008A7
:1001E0009902000899020008990200089902000883
:1001F0009902000899020008990200089902000873
:100200009902000899020008990200089902000862
:10021000952B04089B2B0408A12B040899020008C5
:1002200099020008990200089902000800000000E5
:1002300099020008990200080000000099020008D5
:100240009902000899020008990200089902000822
:100250009902000899020008990200089902000812
:100260009902000899020008990200089902000802
:100270009902000899020008D72B0408000000002A
:100280009902000899020008990200080000000085
:080290000000000099020008C3
:10029800FEE70000254AD2F8883043F47003C2F81C
:1002A8008830234A136803F00F03062B05D8136818
:1002B80023F00F0343F0070313601E4B1A6842F044
:1002C80001021A6000221A611B4A19680A4018497B
:1002D8001A600A68120705D50A6822F00F0242F070
:1002E80007020A60002215499A61DA611A62996266
:1002F8001349D962134919635A639963DA63196414
:100308005A64196821F4802119601A660E4B1B681B
:100318006FF30F03B3F1005F03D20C4B0122C3F854
:1003280008210B4B43F2D2021A60704700ED00E03F
:1003380000200052004402587FEDF6EA0002020253
:100348000000FF01800201010010005C00800051E4
:10035800004000522DE9F041D0B020220021644D28
:100368000DAC05A832F0C8FD4C220021204632F021
:10037800C3FDC022002120A832F0BEFDEB6823F0A7
:100388000403EB606B689804FCD534F04DFC42F232
:100398000203984250D9574BD3F8F42042F0020296
:1003A800C3F8F4200022D3F8F43003F002030193D9
:1003B800019B0292AA6942F44042AA61AA6902F426
:1003C800404202924C4AD16A41F00101D162D26A9C
:1003D80002F001020292029B454A93699904FCD5F6
:1003E80001224FF480333F21032002254FF00508F6
:1003F80005910821C02714266563C4E9002300225B
:100408004023CDE90602C4E90323C4E91012A2641B
:100418004FF4806220460A93C4E90955C4E90B8762
:10042800C4E90E65CDE90813CDE90B2338F0ACFB20
:10043800B8B1324841F08CFE002203922E4AD16AAC
:1004480021F00101D162D26A02F001020392AA6985
:1004580042F44042AA61AA6902F440420392039B13
:10046800BAE74FF400634FF4802231902E95CDE91E
:100478002F30002320A8CDE920234FF40013CDE925
:100488002A87CDE92C56429339F024F908B11C4843
:10049800D0E71922236B302105A85343E26AB3FB46
:1004A800F2F3B3FBF1F201FB1232616B003AB3FBDA
:1004B800F1F118BF012243F021FF08B11148B9E753
:1004C8000C4B1A6842F080021A60D3F8F42042F00C
:1004D8000202C3F8F420D3F8F43003F002030493C3
:1004E800049B34F0AFFB38F047FB50B0BDE8F08117
:1004F8000048025800440258000400589CD90408D7
:10050800AED90408C8D904080446DFF82CD00B4932
:100518000B4A0C4B03E051F8040B42F8040B9A42C7
:10052800F9D300200849094A01E041F8040B914237
:10053800FBD3204641F094BFF8FF07240482060845
:10054800000000244C0000244C000024C43800247F
:1005580040F8044B40F8045B40F8046B40F8047B17
:1005680040F8048B40F8049B40F804AB40F804BB07
:1005780040F804CB40F804DB684670470349044858
:1005880008B502F04AFF062008BD00BFDCD9040800
:10059800A4910508F0B585B00446406801A900F0AB
:1005A8001DFAA0B9A668EFF3108772B6B368062BD8
:1005B80010D101AA014632F9023BF5685B0043F00D
:1005C80001036B5004311829F5D187F31088E061D5
:1005D80005B0F0BD1620F8E72DE9F0419EB00446BD
:1005E800084611461A4603AB0193284B0093032390
:1005F80010F054FA039B4FF6FE72013B934202D966
:1006080023480FF01BFD049B022B03D0042B01D0C1
:100618002048F6E7204FD7F88881B8F1000F02D0BC
:1006280010200FF005FF2146202010F0C1FC1C22ED
:10063800044641460430194E32F05EFC039B06AD79
:100648002382049B6361059BE3600FCE0FC596E888
:10065800030085E8030006A9062014F0B5FDA06094
:100668000CA8C7F8884101F0A1FD20B10D98C7F882
:10067800888101F0B3FDE168606900F009FA606003
:1006880001F06AFD20461EB0BDE8F081643E050811
:100698008BDB0408A2DB04084C010024443F050856
:1006A80038B5437E044683B9057E15B110200FF096
:1006B800BFFE406800F0CAF901236376044BD3F803
:1006C8008821944208BFC3F88851062038BD00BF6E
:1006D8004C010024820705D10068034BC31A584215
:1006E8005841704700207047283F050808B5014663
:1006F800FFF7F0FF10B905480FF050FE4B7E13B11D
:1007080003480FF09BFC084608BD00BFB1DB040896
:10071800BCDB040813B5FFF7E9FF0446406800F0A6
:1007280049F9B7EEC00A12F093FF0090606800F034
:100738004BF9B7EEC00A12F08BFF69460190022010
:1007480018F0BAFB02B010BD10B5FFF7CFFF044692
:10075800406800F027F9636902460849084803F031
:1007680009FAE1680022064810F042FCE369228A8F
:100778000449034803F0FEF9062010BDC5DB040850
:10078800A4910508E1DB040810B5FFF7AFFF0446A4
:1007980000F07CFF10B110200FF04AFE2046FFF752
:1007A800F9FE0028F8D1A06810BD08B5FFF79EFF34
:1007B8000346C06908B10FF03BFE986808BD08B54C
:1007C800FFF794FF007E08BD08B5FFF78FFF0123F0
:1007D800037608BD002303767047417E10B479B9CB
:1007E800428A048A013292B29442428203D9C06991
:1007F8005DF8044B70475DF8044B4182FFF7CABEB1
:100808001320F5E710B50446FFF770FF00F03EFF30
:1008180010B110200FF00CFE2046FFF7DEFF002875
:10082800F8D1062010BD0000054BD3F8880128B187
:100838000023037643680BB1FFF732BF704700BF50
:100848004C0100242DE9F04F864685B0444C6426BF
:10085800DFF810B14FF4FA782468DBF804A00E9D95
:100868000F980135CDE90131DEF808100544431C25
:10087800096803930968B4FBF8F8B4FBF6F40E684A
:1008880026F001060E604FF0FF368E614D600E684F
:1008980046F001060E60DEF80C60F768F68836044C
:1008A800BE610E6846F400760E6000263746D1F821
:1008B800149019F4187C51D1BD4210D919F0020FC7
:1008C8000DD0002F3CD0002A3DD0B84204D2A7EB6F
:1008D800000C94441CF801CC013781F820C019F0B1
:1008E800010F0FD091F83090019B5FFA89F943B15D
:1008F800039BB3429FBFA6EB000C019B9C440CF8E2
:10090800019C0136013C27D0DBF804C0ACEB0A0C93
:10091800C44521D2AE42CAD3124A4B691B0714D52B
:1009280000200B6823F001030B604FF0FF338B614D
:10093800DEF80C30DA68DB88936105B0BDE8F08F2B
:10094800DDF808C0C8E79446C6E7013C04D0536800
:10095800A3EB0A034345E0D36E20E2E70520E0E776
:1009680004000024001000E01FB500238DF80F20BC
:100978000122CDE900230DF10F02FFF763FF05B057
:100988005DF804FB431E052B08D8054B03EB8003D9
:10099800D3F8C803003818BF0120704700207047FB
:1009A8004C0100240279024B53F82200704700BF23
:1009B800743F05080279034B03EB820393ED000AA9
:1009C800704700BF683F05080279034B03EB8203B9
:1009D80093ED000A704700BF5C3F050870B50D46EF
:1009E80086B0044678B343796BB303790022002BB1
:1009F800B3FA83F34FEA531314BF22210C21019356
:100A08000C2341F0800100936B44FFF71BFFB0B942
:100A1800267902460621A6B1D31CB3FBF1F401FBEB
:100A2800143306AC04EB430313F80B4C13F80C3CDB
:100A380043EA042325F812300132062AEBD106B026
:100A480070BD1346EDE71320F9E7000010B5044622
:100A5800D8B10368002103F1F0020C4B417103EB9C
:100A680082039A68824208BF9960837933B1C36868
:100A78008068DA68DB88936147F090F900232046A4
:100A8800A371BDE8104000F0F3BD10BD4C01002477
:100A98002DE9F04F441E9BB080460E46052C02D926
:100AA800B1480FF0CBFAFFF76DFF10B110200FF02F
:100AB800BFFC062900D021B90321AC4816F080FA02
:100AC80006464FEA480040F0010046F0EBFF0C23D1
:100AD800A74A6343D75803EB020A97F88130002BE3
:100AE800E4D1304645F0C6FC8146032C62D8DFE8E5
:100AF80004F06302685C9F4A9F4BDFF8A4B21020A1
:100B0800CDE9043201F0ABFBC0F800800446C0E92F
:100B180002A908A801F04AFB0546002840F0D68142
:100B28003046214600F05AFD059A21460126104616
:100B380000F054FD049B2146184600F04FFD214665
:100B4800584600F04BFD58222946381D32F0D4F99A
:100B58004FF48003FD634FF0FF31884A5046C7E9E0
:100B680001354FF08063BB610723FB624FF0004300
:100B78007B650823C7E90955CDE9005302952B4643
:100B880046F0C6FFD9F80C30B9F8062001214846CE
:100B98009A612B462A4643F0D7F929465046A67152
:100BA80047F016F890B1404281E7754A754BDFF877
:100BB800F4B1A4E7744874E7744A754BDFF8E8B1F8
:100BC8009DE7724A724BDFF8E4B198E73B6814205E
:100BD800704A1D61D2F8FC3043F08073C2F8FC30D3
:100BE800A2F55D42136843F0010313606A4B03EBFF
:100BF8008803C3F8C84343F087FA2A460DF11F0358
:100C0800802120468DF81F50CDE90066FFF71AFEB7
:100C18000246002840F05681022043F075FA2A4621
:100C28000DF11F0380212046CDE90066FFF70AFE7B
:100C38000246002840F046819DF81F30242B40F0E2
:100C4800B7802A467C2120462571FFF78DFE024693
:100C5800002840F03781304643F056FA2A46592199
:100C68002046FFF781FE0246002840F02B814B4EBC
:100C7800C5F347025B212046FFF776FE02460028AF
:100C880040F02081C5F347125C212046FFF76CFE37
:100C98000246002840F016812023721901905E2137
:100CA800009303462046FFF7CDFD0246002840F09A
:100CB80009812035B5F5005FDAD101225921204696
:100CC800FFF752FE0246002840F0FC800490962070
:100CD80043F01AFA0123049AA1212046CDE90033F2
:100CE8000DF11F03FFF7AEFD0246002840F0EA8031
:100CF8009DF81F3003F00F03012B40F0E5800E2212
:100D08007D212046FFF730FE0246002840F0DA80B9
:100D1800A72240212046FFF727FE0246002840F080
:100D2800D180A92242212046FFF71EFE0246002854
:100D380040F0C880022241212046FFF715FE0246F6
:100D4800002840F0BF8043212046FFF70DFE0246F1
:100D5800002840F0B7800123637101F0FDF92046B7
:100D68001BB0BDE8F08F00BF12DC040819DC0408D2
:100D78002C3A06086C7206085872060840420F00A2
:100D8800C06E0608AC6E06081DDC0408347306083D
:100D98002073060800ED00E04C010024803F0508A0
:100DA80044720608986E0608647006080C730608F4
:100DB800CDE900600DF11F038F212046FFF742FDAA
:100DC800024600287ED19DF81F306B2B3FD10322AD
:100DD8000D2120462671FFF7C7FD0246002871D174
:100DE8003C2210212046FFF7BFFD0246002869D1AA
:100DF8005C2211212046FFF7B7FD0246002861D189
:100E0800442212212046FFF7AFFD0246002859D19F
:100E1800022213212046FFF7A7FD0246002851D1E0
:100E280014212046FFF7A0FD024600284AD11521CB
:100E38002046FFF799FD0246002843D11621204697
:100E4800FFF792FD0246E8BB012218217CE7702BD0
:100E580037D102230422314620462371FFF784FD4F
:100E6800024678BB1E2043F04FF944221221204647
:100E7800FFF77AFD024628BB022217212046FFF71A
:100E880073FD0246F0B9042215212046FFF76CFDD8
:100E98000246B8B9152210212046FFF765FD024623
:100EA80080B9182211212046FFF75EFD024648B995
:100EB800012216212046FFF757FD024610B90822E5
:100EC800C3E713221046F2E50522FBE72046FFF7A9
:100ED800BDFD099801F082F908B50020054B53F8CB
:100EE800042F2AB101301028F9D11C200FF0A0FAE4
:100EF80008BD00BF9002002408B5830706D1036827
:100F0800074A934205D0074A934202D006480FF099
:100F180045FA037E13B105480FF090F808BD00BFED
:100F280054610508386105084BDC04085ADC0408DC
:100F380038B50D46FFF7E0FF0369044613B11020EA
:100F48000FF076FA2946406800F032FEE368062082
:100F58000133E36038BD000030B587B00446084669
:100F680011461A4603AB0193104B009303230FF06D
:100F780095FDFFF7B1FF21460546402010F018F80F
:100F88003C2204460021043031F0B6FF9DF81420BD
:100F9800DDE9030100F0B4FF6060054800EB85005F
:100FA800C0F84841204607B030BD00BF805F050843
:100FB8004C0100242DE9F0410D468CB00646174639
:100FC80055F8040B4FF01008FFF796FF184B194A15
:100FD8000446069329468368701E07930323CDE9C8
:100FE8000823154ACDE90A2803AA019206AA009205
:100FF8003A460FF0F5FC236913B140460FF018FA92
:10100800A368039A9A4202D00C480FF017F8049983
:10101800032903D8059A531E1F2B01D90848F4E762
:10102800606800F033FE06200CB0BDE8F08100BF18
:101038005B000200C60502029404020263DC040895
:1010480074DC0408F0B599B0FFF756FF0346EFF3D8
:10105800108C72B6426900F11A04C76B6E4600F133
:101068003A0E2068083454F8041C3546744503C504
:101078002E46F6D18CF3108812B110460FF0D8F92D
:1010880018680E49884209D0D86808AC6B46904267
:101098000ADC08A914F098F819B0F0BD384619B060
:1010A800BDE8F04013F04EBB33F8021B0132490093
:1010B80041F0010144F8041BE9E700BF3861050865
:1010C80070B51D460446084611464FF002120FF04F
:1010D8005BFC286810F04CF8431E0546012B02D92A
:1010E8000D480EF0ABFFFFF7F7FE214606464020FD
:1010F8000FF05EFF04463C220021043031F0FCFE74
:101108002846A56000F0ACFC6060044800EB86004F
:10111800C0F84841204670BD89DC04084C01002411
:10112800F8B51C460746084611464FF002120FF064
:101138002BFC206810F01CF80328054602D90D483E
:101148000EF07CFF00F194030B4E06EB83067468E7
:101158006CB9394648200FF02BFF40220446002185
:10116800083031F0C9FE06236560236274602046AA
:10117800F8BD00BF92DC04084C01002409282DE9C1
:10118800F04F04468BB00E460F6802D943480EF064
:1011980055FF3A7A02F0FF03002A49D10DF10809F8
:1011A800DFF804A103F10108444512D807F1240827
:1011B80000254646A9467B6AAB424DD8013C02AEA3
:1011C80000257C627B6AAB4256D806200BB0BDE88E
:1011D800F08F56F8045F284649F82350FFF77AFA4B
:1011E800024640BB01902846FFF786FE0168034689
:1011F800019A514520D1C168F1B92948C7E750F88B
:1012080004CB654501D12748C1E701314145F6D1F5
:1012180039464FF0000B51F824CF584684450ED17B
:10122800AAB12846FFF7CBFAA0B1BBF1000F11D144
:1012380010200FF0FDF8002348460121E6E751F899
:1012480004EF0130AE4508BF4BF0010BE6E71B6920
:10125800002BEAD14346A5E77068FFF73BFA7368AD
:1012680030B11846FFF7B6FA013546F8049FA2E7F1
:101278001A69013A1A61F7E756F8044B204648F80C
:10128800044FFFF727FA20B12046FFF79DFA0135F2
:1012980098E7236901332361F9E700BFA1DC04085B
:1012A800B4DC0408C6DC04085461050808B5034624
:1012B800806908B10FF0BCF85869BDE8084013F020
:1012C8005CBA41680B7A10B504462BB1CB698342EE
:1012D80002D180680FF0BEF800230620237310BDEA
:1012E80010B50446FFF7F6F920B12046BDE81040D6
:1012F800FFF773BAD4E90020064B9A4205D104F1EE
:101308001A0100F0F1FC606110BD04F13C0100F02D
:10131800CDFEF8E754610508037E10B50446BBB955
:10132800036913B110200FF083F8D0E900200B4BAC
:101338009A420FD100F0AEFD0123094A002123761D
:10134800102352F8040F844208BF1160013BF8D102
:10135800062010BD00F0D4FEEEE700BF546105087A
:1013680090020024104A002352F8041F09B1097A98
:10137800C1B90133042BF7D10C4BD3F89C2372B1BC
:101388000B4A0021D16011604FF40001094AC2F8EC
:101398008410BFF34F8FBFF36F8FC2F88411002200
:1013A800C3F89C23704700BF9C0300244C01002411
:1013B8000014004000E100E010B5EFF3108472B6AD
:1013C80000230372C361FFF7CDFF84F31088062062
:1013D80010BD000038B5054608460C460FF072FEF1
:1013E80020B9062C02D004480EF0D8FF2846FFF793
:1013F800E3FF06202C6238BDD8DC0408112808D881
:10140800054B03EB8003D3F88003003818BF012095
:1014180070470020704700BF4C010024022808D8FC
:10142800054B03EB8003D3F87402003818BF012082
:1014380070470020704700BF4C01002438B5431E98
:1014480004460D46102B02D8431F012B02D80B4827
:101458000EF0F4FDFFF7D2FF10B110200EF0E8FFF8
:10146800204643F013FD0028F7D00368DB07F4D4C7
:10147800034B03EB8403C3F8805338BDE3DC040853
:101488004C0100242DE9F043044693B008460FF0C0
:101498006FFE6FF04043421E07469A4202D32E4821
:1014A8000EF0CCFD206A0FF00DFE08B92B48F7E7C7
:1014B8002B4910200FF07CFD236A064644608360A8
:1014C80000230373EFF3108872B6684600F06EFECF
:1014D80000283BD1234BD3F89C93B9F1000F25D1B9
:1014E800214D21460720FFF7A9FF42F0FBFC07200A
:1014F80043F0D6FCC5F80090072043F0A7FD1B4B2E
:101508001B4AD021B0FBF3F040F2E7330138A86260
:10151800EB6201236B61C5F81090EB6082F837131A
:101528004FF40001C2F8841151602B6000F014FEE2
:101538000023E661C4E905330123C4E90377237274
:1015480088F31088062013B0BDE8F08388F310886C
:10155800019800F043FE00BFEBDC0408F2DC04084D
:10156800206105084C0100240014004040420F008F
:1015780000E100E0112808D8DE30044B03EB8003BB
:101588009A688A4204BF00229A6070474C0100247E
:1015980008B5431E0246012B02D907480EF04EFD3E
:1015A800FFF73CFF10B110200EF042FF034B03EB96
:1015B8008203C3F8741208BD89DC04084C010024B6
:1015C800022808D89C30044B03EB80035A688A42EF
:1015D80004BF00225A6070474C0100242DE9F041F5
:1015E80092B00D4644F046FF86886C460027304688
:1015F80001F031FD482280461849684631F038FC30
:1016080054F8041B404631F0C3FC10B914480EF0DE
:1016180015FD0137122FF3D1124900234FF0FF3285
:10162800114851F8044F34B150F82340B44203D163
:1016380010200EF0FDFE1A460133402BF1D1531C49
:1016480001D11C20F5E7084B43F82260074B03EB58
:101658008203C3F8805212B0BDE8F0818C6105089E
:10166800FCDC0408C80300244C0000244C010024BE
:10167800054A4023002110B552F8044F844208BFA0
:101688001160013BF8D110BDC8030024F0B5014634
:101698000C4D002255F8043F43B11C7A04F0FF00BA
:1016A80024B153F8246F0024A64204D10132042A3D
:1016B800F0D10020F0BD53F8047F8F42FAD00134F6
:1016C800F2E700BF9C03002438B50446FFF714FC7A
:1016D80005462046FFF7DAFF10B110200EF0A8FEED
:1016E8002046FFF7FDFD68690028F7D1062038BDC0
:1016F80010B50446FFF7E8FF2046BDE81040FFF7A5
:10170800A1BC00002DE9F0472C4C2368DA0701D46E
:1017180042F0E8FB2A4E4FF00009D4F8048037461F
:1017280057F8044FD4B1237AC3B12569013D256127
:10173800A5B9E36804F1240A23616369013363618D
:10174800636AAB4232D8E469237B3BB901230621A3
:10175800204623730EF0E2FE00B9207309F1010957
:10176800B9F1040FDCD1154C2368DB0701D442F032
:10177800B9FB144B4FF47A7162681B68A2EB08023C
:10178800B3FBF1F39A4217D300226E20114656F8A4
:10179800043F23B11C7A14B11972C3E9060101325E
:1017A800042AF4D1BDE8F047FFF7DCBD5AF8040F6E
:1017B8000135FFF795FDC3E7BDE8F087001000E0AD
:1017C8009C03002404000024F8B5144D002455F8A7
:1017D800040F08B1FFF7F0FD0134042CF7D1104EC7
:1017E8000025104F56F8044F84B100232361D4E933
:1017F8000030BB420ED100F06CFB18B90A490B4807
:1018080002F0B8F901232376002333600135102D47
:10181800E8D1F8BD00F074FCF4E700BF9C03002495
:10182800900200245461050806DD0408A491050807
:10183800EFF3108372B60022427183F31088704769
:1018480010B5044C2368DB0701D442F04BFB6068F9
:1018580010BD00BF001000E02DE9F047089E0746C4
:10186800884691469A460B4C3D6805EA0805003DB6
:1018780018BF01254D4509D0FFF7E2FFA0EB0A008C
:10188800B04201D2013CEFD1002000E00120BDE8C8
:10189800F08700BF80841E0073B58469FFF7D0FF0E
:1018A8001E4B05461E684FF4FA73B6FBF3F6A368A1
:1018B800190714D4A3685A070CD5A3682046002238
:1018C800142143F0100340F8083F2B460096FFF719
:1018D800C3FF90B1A368DB0712D401200EE0A36810
:1018E80020460022282143F0200340F8083F2B46D9
:1018F8000096FFF7B1FF0028DCD1002002B070BDD0
:10190800A36820460022032143F0020340F8083F61
:101918002B460096FFF7A0FFF0E700BF0400002465
:101928002DE9F04F90F801C089B084690023BCF11B
:10193800000F3BD00CF1FF3100270E464FF0060E8A
:101948004FF00A080097CDE90413CDE90633CDE935
:101958000233431D01933B469C4529D80FB13146BC
:101968000496059B04AE21636363069BA363079BF0
:10197800E36300F180033246083303CA43F8041CCA
:1019880008A943F8080C16468A42F4D1029B009A2B
:101998006361039BA361009BE361D4F8C03023EA31
:1019A8000203C4F8C03009B0BDE8F08F6146C3E750
:1019B800019D032B03F1010915F8012F019521D889
:1019C8000EFB09F3012702FA03F31E430123009DCE
:1019D80090F802B093401D43B2FBF8F3009508ADB0
:1019E80008FB132205EB830A124D02EB420215F89D
:1019F8000BB05AF8183C0BFA02F21A434B464AF855
:101A0800182CA9E7043B0525B3FBF5FB0BF1010AEC
:101A18000BEB8B0B08ADA3EB0B0305EB8A0A0EFB54
:101A280003F35AF8105C02FA03F32B434AF8103C0C
:101A3800CCE700BFD461050808B5037913B91320B2
:101A48000EF0F6FCEFF3108372B642791AB183F305
:101A580010881020F4E70122427183F3108808BD32
:101A6800431E012B2DE9F743074602D948480EF0DB
:101A7800E5FADFF8388141F20309464D902000F07D
:101A8800EEFB0446012F18BF454601460770A0F833
:101A980002903846FFF77CFDA56137F0E9FCE06766
:101AA800064633F0C1F848453B4B94BFB608F608E4
:101AB800013E9E4205D938462146FFF781FD374849
:101AC800D5E7374B3749D3F8D82042F02002C3F87E
:101AD800D820D3F8D830344A03F020030193019B6F
:101AE8009368A86808420ED19268D0060BD1294A9B
:101AF8009268D8F808100A43D1070BD503F47C1371
:101B0800B3F5403F06D038462146FFF759FD10206F
:101B18000EF08EFC08234FF44032012604F1180819
:101B2800C4E9072304234046A6852663C4E909635C
:101B3800002384F83430E36484F85030C4E90F3368
:101B4800C4E9113333F082FC40B12046FFF7A4FE0C
:101B580038462146FFF734FD0520D9E740F2FF72E9
:101B68004FF00111404633F073FD0028EDD1686055
:101B7800E864EB6823F00473EB6028666866A8667F
:101B8800E86642F0AFF92046267103B0BDE8F0835D
:101B980089DC040800200240FF50250277DD040894
:101BA800004402580D00008000230240002102403A
:101BB80003792DE9F041044692B0884613B9132001
:101BC8000EF036FC4378102B02D12D480EF036FA71
:101BD800084644F04FFC038922780546C3F30803FE
:101BE800013A202B15BF837A0123866811261CBF72
:101BF800C3F38203C6F34436D340DB0713D56FF033
:101C080004006178631D001BC21891420DD820465C
:101C1800FFF712FF2046FFF73FFE60B92046FFF7A7
:101C280007FE6E20CCE71748D0E713F8012FB24221
:101C3800EAD11548CAE7684600F0B8FA0746C8B9B5
:101C480021464046FFF7CAFC00F086FA3B463A4672
:101C58000321284642F078F9637820465A1C234429
:101C680062709E71FFF75CFE2046FFF7E1FD12B03F
:101C7800BDE8F0812046FFF7DBFD019800F0AEFAE1
:101C8800A4DD0408B7DD0408C8DD0408032970B51D
:101C980004460E46154608D8012A09D0043A1C2ADB
:101CA80003D80F4BD340DB0702D40E480EF0C6F919
:101CB8002046FFF7C1FE2046FFF7EEFD28B9204673
:101CC800FFF7B6FD6E200EF0B3FB2046A670E57058
:101CD800FFF726FE2046BDE87040FFF7A9BD00BF0C
:101CE8001110001074DC04082DE9F04F037995B049
:101CF80005460291002B00F0C1804378002B00F0CC
:101D0800BF80EFF3108372B6427902F0FF0132B15F
:101D180083F310881021084615B0BDE8F08F012222
:101D2800427183F310884022846904A831F0E4F8F2
:101D3800FFF786FD534B0746D3F8008037F098FB32
:101D4800EB6F98422BD1504B9A68504B1340B3F528
:101D5800403F24D1E36844F2080223F07F4323F490
:101D68007E0323F4134323F0E003934217D126693B
:101D7800474B1E4013D1226BD5F880309A420ED1C2
:101D8800626BD5F884309A4209D1A26BD5F88830B5
:101D98009A4204D1E26BD5F88C309A4203D0284697
:101DA800FFF746FDB6E73223B8FBF3F8A368D90777
:101DB80010D504F108034FF000090393E978494569
:101DC8001FD8687804ABB0424DD800212846FFF7E9
:101DD8002FFDA0E70122204622601146A368134385
:101DE800A3603B46CDF80080FFF736FD0028E0D120
:101DF8006E21A3685B07E9D5A36843F01003A360CD
:101E0800E4E73B46002204210398CDF80080FFF761
:101E180023FD0028ECD01C230DF1100B4FF0000A15
:101E28002360A36843F00403A3606B78534502D88A
:101E380009F10109C2E73B46012204212046CDF8F9
:101E48000080FFF709FD0028D2D02368DA0613D4F2
:101E5800236C0AF1010ADBF80020C3F30B031344D7
:101E68004BF8043BE1E753F8042B029CB2FBF1F278
:101E780024F816200136A6E70521BAE713214AE718
:101E8800162148E704000024002302401F003F00F9
:101E9800010000F0037910B50446CBB1FFF7CCFD83
:101EA8002046FFF7F9FC28B92046FFF7C1FC6E2051
:101EB8000EF0BEFA002320462371FFF7D9FB2078E5
:101EC8002146FFF77DFB2046BDE81040FFF7B0BC78
:101ED80010BD037970B5044683B183690026067185
:101EE8005E60FFF7D9FC05462046FFF7C1FB214697
:101EF8002078FFF765FB6671284670BD0125FBE772
:101F08002DE9F04F95B00C469346019044F0B2FA93
:101F18008046204644F0AEFA064698F809000022AA
:101F2800C0F34300824202D35D480EF087F8D8F828
:101F3800103003EB021999F809307BBB99F80AA015
:101F48000AF1FF31042902D9BAF1080F26D199F80C
:101F58000B1009BB757A0021C5F34305A9421DD2B0
:101F6800376907EB01177B7AD3B997F80AC0D445CC
:101F780016D197F80BC0BCF1010F11D11C2000F04D
:101F88006EF9BAF1020F0546C0F808A080F80CB047
:101F980008D14FF0FF320CE00729DBD00132C1E74E
:101FA8000131DBE7BAF1050F4FF6FF7208BF4FF0BA
:101FB800FF3250466A6042F069FFAE61C5E9040825
:101FC80002A800F0F3F8A0BB29465046FFF736FAFE
:101FD8002A69126812F0010B02D010200EF028FABC
:101FE80029460198FFF7FAFA20462946FFF7F6FA3C
:101FF80000F0B2F8504642F053FF2C690323C4F8AE
:1020080000B0C4F804B0C4F80CB0C4F820B0A360A1
:1020180040F20113A3616B68C4F81CB0C4F868B03F
:10202800C4F828B0E3621F4B9C420CD10023236301
:1020380018E02846FFF71CFB50462946FFF79AFA96
:10204800039800F0CBF8184B9C42EFD003F570537F
:102058009C42EBD003F580639C42E7D003F5806394
:102068009C42E3D04FF0010A002340460221C4F805
:1020780014A052462361636299F8083041F064FF66
:102088003B7A30465246022141F05EFF1123284632
:102098002362C4F800A085F80DA015B0BDE8F08F44
:1020A800DBDD0408000001400004014030B5EFF317
:1020B800108272B6437B1BB982F31088132030BD9F
:1020C80003691C68E40703D482F310880520F6E747
:1020D8005C6A03684568E31A04602B4082F3108841
:1020E800426854080134A34208D024BF01329B1A25
:1020F800027B02B15B4200200B60E0E72220DEE7B2
:1021080038B5437B0446EBB1036900251A682946B4
:10211800457322F0010240691A602A461D629D60DB
:102128002B4641F011FF29462B462A46A06941F06B
:102138000BFF2046FFF79CFA2146A068BDE838400F
:10214800FFF718BA38BD0000024B5A69026058619F
:10215800002070474C010024024B5A6912685A61EA
:10216800704700BF4C010024024B9A69C0E9002166
:10217800986170474C010024044A93691968916179
:1021880010B15A6818461047704700BF4C01002428
:1021980038B50446044DAB690BB1A34200D338BD32
:1021A8000120FFF7E9FFF6E74C010024C460056150
:1021B80046618761C0F81C80C0F82090C0F824A050
:1021C800C0F828B0C0F82CD080ED0C8B80ED0E9BA9
:1021D80080ED10ABC0F808E0FFF7B6BF124D6C6990
:1021E80008B50CB940F022F960602046FFF7D0FF2F
:1021F80023686B612046C468056946698769D0F819
:102208001C80D0F82090D0F824A0D0F828B0D0F8BE
:102218002CD090ED0C8B90ED0E9B90ED10ABD0F880
:1022280008E00120704700BF4C01002410B50021D0
:10223800044600F0DFFA18B914B120460DF0EAFEA2
:1022480010BD002100F0D6BA10B50121044600F0F7
:10225800D1FA18B914B120460DF0DCFE10BDFFF715
:10226800E5BF10B501220C4600F0EAFB18B914B11D
:1022780020460DF0CFFE10BD00F0E2BB00F0A2BB7F
:102288002DE9F0414FF0030C00252A4C8646D4F87E
:102298008C04002101310EEB01039A0803F00303BB
:1022A800825C5B0042FA03F303F00303022BF1D0D4
:1022B800D4F89804090100EB0E104FEA910E61B3AF
:1022C80000EB8E0E03681A0724D1D4F89824991AC3
:1022D8009A424FEA9116C1F301124FEA111119D827
:1022E800D4F89C7452009F4214D9D4F88C740CFA18
:1022F80002F8BB5D43FA02F243EA080302F0030264
:10230800012A07D13F2DBB5504EB45030CD80135F5
:10231800A3F8AC1404307045D4D145B1013D04EBA9
:102328004503B3F8ACE4B2E7C4F8A824F2E7BDE883
:10233800F08100BF4C01002430B51D4C0122D4F8B7
:102348009834D4F89454C01AC109C0F302134FEA60
:10235800101C9A406B5C4FEA9C0E23EA02036B54F4
:102368008309D4F8A0240325B2EB901FD4F88C0479
:102378000CF0030288BFC4F8A034C15C52000CF111
:10238800010C05FA02F30CF0030221EA03015300E1
:1023980000F80E104FEA9C0ED4F88C0410F80E10BA
:1023A80041FA03F303F00303022BE7D030BD00BF6B
:1023B8004C01002421F00F01174A38B50B1A174CAD
:1023C8000546013BC4F89C14C4F88C04DB00A2FB4E
:1023D80003235B0A9A00C4F89034A1EB83110133FC
:1023E80007321D44C4F8981403EBD2020021C4F844
:1023F800945430F081FD002301204FF0FF31C4F8E0
:10240800A0342381A4F82C05C4F83035C4F8341559
:10241800C4F8A43438BD00BFF32C23FA4C010024BF
:10242800024A138902331381704700BF4C0100240C
:10243800024A1389023B1381704700BF4C010024F4
:10244800024B1889003818BF012070474C0100243E
:10245800F8B51C4D00222B8905F1080405F578769E
:10246800C5F8A82443F00103C5F830252B8154F89A
:10247800043F1A0719D1D5F89824981A93424FEABD
:102488009011C0F301124FEA10100ED3D5F89C74C6
:102498005200BB4209D2D5F88C7417F801C04CFA27
:1024A80002F303F00303012B02D0B442DFD1F8BDDD
:1024B800032393404CEA030C07F801C0FFF7E0FE42
:1024C800F3E700BF4C01002471B3F8B50F46051FB0
:1024D8000024164E55F8043F1A0719D1D6F8982447
:1024E800981A9A424FEA901CC0F301124FEA101052
:1024F8000ED8D6F89C145200994209D9D6F88CE423
:102508001EF80C1041FA02F303F00303012B03D069
:102518000134A742DED1F8BD0323934019430EF8D6
:102528000C10FFF7ADFEF3E7704700BF4C01002425
:102538002DE9F043614C83B0D4F8A834D4F88C1456
:10254800C3B1D4F8903400259800C4F8A85488B1D1
:102558000026B30806F00302CB5C5200134103F0D7
:102568000303032B20D001368642F2D3D4F8A834D3
:10257800002BEAD1D4F8A4344FF0000901274FEA20
:10258800D308D4F894344FEAC90513F8096046B360
:1025980005F0030316F0010F4FEA95024FEA4303D3
:1025A80014D176080135F3E730460136FFF768FEA7
:1025B800D4F89034D4F88C14B6EB830F4FEA830028
:1025C800C7D3D4F8A834002BBFD1D3E78A5C42FA2A
:1025D80003F303F00303012B09D0760805F1010585
:1025E800D6D1C84509F1010325D09946C9E7D4F8E1
:1025F80098042B016A4640F26341C35800EB05106A
:102608005BB10CF097FE009B3BB10DF053FFDDE989
:1026180000010DF01FFF0DF063FFEB08D4F89404E0
:1026280005F00701C25C07FA01F122EA0102C2546F
:10263800D4F88C14D1E74FF0000C03260227654626
:1026480062460EE0012905D106FA03F301252EEAB8
:10265800030303700132D4F8A4349A421FD8D4F883
:102668008C144FEA920E02F0030301EB920011F86A
:102678000EE05B004EFA03F101F0030102291AD0C3
:102688000329DFD107FA03F32EEA030E80F800E0EE
:102698009446D4F8A434013200259A42DFD923891C
:1026A8000022C4F8A4C423F00103C4F8A0242381A1
:1026B80003B0BDE8F083002DEAD0C5E74C01002443
:1026C800044B00211A89C3F8A81442F001021A81A8
:1026D800FFF72EBF4C010024454B00212DE9F041A6
:1026E800D3F89C240F46D3F898440E46D3F88C545C
:1026F800121BD3F890440B4641604FEA840C0C46F9
:1027080081610260C0E90211C0E904119A0803F06E
:1027180003080133AA5C4FEA4808ACEB030E42FAFF
:1027280008F2BEFA8EFE02F003024FEA5E1E012A8C
:1027380049D0022A39D0A2BB01369C4501F10101DA
:102748001746866022D09A0803F00308AA5C4FEA6D
:10275800480842FA08F202F00302012A02DDBEF13B
:10276800000FD3D0A2F10108012FB8FA88F84FEA78
:10277800581824D0022F02D142690132426182697D
:10278800BA4238BF8761B8F1000F02D1BEF1000F1D
:10279800BCD0C2688A4238BFC1609C4519D00021AC
:1027A800B4E79C45CFD10322D7E701349C4507F114
:1027B80001074460C7D1012F4FF00008DAD1026940
:1027C80001320261DBE701349C45446007D01746BB
:1027D800B9E724013601C0E90146BDE8F08107697F
:1027E80001370761876907B982610127D1E700BF0F
:1027F8004C0100242DE9F84300F10F0636093FD0BB
:102808006F4C2389E3BBB4F82C250D46E2BBD4F802
:10281800A004D4F89074B84232D24FF0010ED4F824
:102828008CC40138013F00216044CCF101086744A1
:1028380018E04A1C964257D913F00C0F39D18A1C5C
:10284800964240F2AC8013F0300F38D101329642F4
:1028580040F2AA803F2B25D8511C8E4240F2A98015
:10286800B8420AD008EB000910F8013F9A07E0D0F7
:1028780013F00C0F18D10122E2E7BEF1000F25D0AA
:1028880000231846BDE8F883D4F83015D4F8342569
:10289800914226D2D4F8A004D4F89074874215D96E
:1028A8009E46BCE70021DBE713F0300F0CD1012274
:1028B800CDE703F03002B2FA82F25209CAE73F2BA1
:1028C8008CBF00210121CBE70022C3E747F0DAFAE9
:1028D800D4F8A004D4F890744FF0010EB8429ED3F7
:1028E800CEE747F0CFFA92E74FEA8909A9EB020150
:1028F800012A01F1010704D109F101039B08C4F879
:10290800A034D4F8A43407F0030EB80802314B45BC
:102918004FEA4E0E38BF4B468945C4F8A4344FF0F1
:10292800010303FA0EF31CF800E043EA0E030CF867
:10293800003012D34FF0020E01F003038808D4F8D8
:102948008CC401315B001CF8008089450EFA03F342
:1029580043EA08030CF80030EED2D4F830351201FF
:10296800D4F89884002133443E01C4F8303508EB8C
:102978000713184630F0C0FAEA07034681D500224B
:10298800D4F89404F90807F0070748F8062001224C
:10299800445CBA40224342541846BDE8F8834FEAE3
:1029A800890909F10109A1E74FEA890909F1020931
:1029B8009CE74FEA89090A4609F1030996E700BF2F
:1029C8004C010024034B1A89012A02D808B1FFF7E9
:1029D800B3BC70474C010024034610F00F001BD114
:1029E800164AD2F89814994215D810B4D2F89C44D3
:1029F8009C420DD95B1AD2F88C44C3F301119A0991
:102A08001B09A25C49000A4102F00302012A05D011
:102A18005DF8044B704770470020704701301A1862
:102A2800910802F00302615C520041FA02F202F0DE
:102A38000302022AF2D00001EAE700BF4C01002499
:102A48002DE9F84F0F460646002800F0CC80744D5B
:102A58002C89002900F09280002C40F09380D5F852
:102A680098040F31D5F890C4301A09094FEA8C0A36
:102A7800030903F1010EBEEB8C0F80F0BA80A44667
:102A8800D5F88C944FF001084FEA9E040EF0030B22
:102A980019F804404FEA4B0B44FA0BF404F0030412
:102AA800022C2BD02CB90CF1010C0CEB08048C4235
:102AB80026D341455ED067D3C4448C4525D2002A2D
:102AC80060D0C209D5F8941403F007033846895C2E
:102AD800194101F00101FFF78DFE0446002851D08D
:102AE8004FEA0812314630F0C3F92B89012B02D87E
:102AF8003046FFF721FC2046BDE8F88F08F10108B1
:102B08000EF1010EF245BFD1D3E75C1843449C4255
:102B180020D903F0030298084FF0020C0133520049
:102B280019F800709C420CFA02F242EA070209F80E
:102B380000200FD903F003029808D5F88C740133EC
:102B4800520017F800E09C420CFA02F242EA0E0228
:102B58003A54EFD1D5F8A434A1EB080206EB0810DB
:102B680000219C424FEA021238BF1C46C5F8A44413
:102B780030F0C2F934462046BDE8F88F012C01D860
:102B8800FFF7DAFB0024B6E75C184FF0030CA8EB5C
:102B9800010104EA0C07A008012904F101044FEA25
:102BA800470719F800E00CFA07F72EEA070709F8B3
:102BB800007010D003EB080E04F00302A708D5F844
:102BC8008C3401345200D95D74450CFA02F221EAC2
:102BD8000202DA55F0D1D5F8A0348342CAD9344676
:102BE800C5F8A004C7E701463846BDE8F84FFFF727
:102BF80001BE0129BED029B14FF00108002A7FF497
:102C080060AFBFE703F003038009D5F88C140322F3
:102C18005B009A400B5C23EA02030B54DBE700BF1E
:102C28004C01002410B58AB0044603A8FFF754FDF0
:102C3800039A0949DDE904300090204600F09AFF24
:102C48002046069C079ADDE90831CDE900140349BE
:102C580000F090FF0AB010BDD8610508FC610508B6
:102C68002DE9F843DFF8589107464749D9F89824E1
:102C780000F080FFD9F8901489006DD00025DFF8A6
:102C8800448115F03F0633D005F003067600AB0803
:102C9800D9F88C24D35C334103F00303022B63D0AF
:102CA800032B5FD0012B4AD1D9F898242B01D25895
:102CB80042455BD0354B9A425AD0354B9A425BD04D
:102CC800344B9A4256D0344B9A4253D0334B9A42A3
:102CD80054D0334B9A4251D0324B9A4252D0324B55
:102CE8009A424DD0314B9A4214BF68224D2227E0B8
:102CF800A9421ED9D9F88C042C4602E001348C4232
:102D080008D0A20804F00303825C5B0042FA03F3D4
:102D18009B07F3D0621B7F2A0BD9920924493846B6
:102D280024F03F0500F026FFD9F89034B5EB830F67
:102D380012D22A011F49384600F01CFFA7E72E22AD
:102D48001D49384600F016FF0135D9F89034B5EB27
:102D5800830F4FEA830194D338461849BDE8F843F6
:102D680000F05BBB6D22EBE73D22E9E75422E7E781
:102D78004C22E5E75322E3E74422E1E74122DFE77B
:102D88004222DDE74622DBE744620508ECA9050894
:102D980094A10508ACB20508DCB20508449E0508F4
:102DA800BC9E05083CA6050800A7050868AB0508F1
:102DB800606205087C6205088462050840620508AF
:102DC8004C01002424B405080346064A506A1A68D0
:102DD8004168C1F31E018A4202D3521A1A60704731
:102DE8000068F5E74C010024014441F2055388428C
:102DF80004D398B2012838BF0120704703EB43136E
:102E080010F8012B5340F2E7034B044A5A620022A0
:102E1800C3F8E423704700BF4C0100241CE30508F5
:102E28002DE9F04781460F46002942D0FFF7DCFF25
:102E3800214B82465C6A0CB9204636E094F907308B
:102E48000025E668002B06F1FF3616DB013604F193
:102E58001808B54215D32468EDE706EB05083A468D
:102E680048464FEA580808F1060354F8231030F092
:102E7800A7F80028CCBF45464646731B012BECD863
:102E8800E4E7236933F815309A4510D163695B5D2F
:102E98009F420CD13A46494658F8250030F058F878
:102EA80028B96068C0F31E002844BDE8F0870135E2
:102EB800CFE70120F9E700BF4C0100242DE9F041DC
:102EC80007460E469046FFF7ABFF002840F0948077
:102ED800FF2E03D949494A480CF090FA494CB8F1F9
:102EE800000F44D1D4F8E403751CA8B1D4E9FA134F
:102EF8002B448B422BD942462944FFF7BDF9804623
:102F0800D4F8E403B8F1000F1AD14246D4F8EC1310
:102F1800FFF7B2F9C4F8E483802DA84638BF4FF014
:102F280080084046FFF78DF9C4F8E403B8BB28468B
:102F3800FFF787F9C4F8E40380BB28460DF06AF868
:102F4800D4F8E8332B44C4F8E8330028E4D0D4F8A4
:102F5800EC333946324600EB03082B444046C4F8AC
:102F6800EC3347462FF084FF002308F8063031463B
:102F78003846FFF739FF8046606AD0E90252AA4214
:102F88002AD36D000A2D38BF0A25C5EBC5001830B5
:102F9800FFF757F948B9C4F8E403CEE7A846002379
:102FA800C4F8E883C4F8EC33D1E700F11802616A89
:102FB80002EB85020160026102EB450242614A6848
:102FC800C968C2F31E020A44416862F31E01002266
:102FD800C0E90115C26060620169436921F8128085
:102FE800911D9E54636A43F821705868D968C0F3EC
:102FF8001E0001311044D960BDE8F081F9DD0408F4
:1030080030A305084C0100240022FFF757BF10B574
:1030180004462FF0AFFF01462046BDE81040FFF7F9
:10302800F3BF0122FFF74ABF07B5019001A8FFF7D8
:10303800CBFE019A036933F8120003B05DF804FB74
:1030480007B5019001A8FFF7BFFE019B4269D05C5C
:1030580003B05DF804FB07B5019001A8FFF7B4FEC3
:10306800019B063350F8230003B05DF804FB13B549
:10307800019001A80C46FFF7A7FE019B4269D25CAC
:10308800063350F82300226002B010BD2DE9F84342
:103098001D46002307468846036016460B601360EA
:1030A8002B60154BDFF854905C6A64B92B68326862
:1030B80013442B60BDE8F883336812F8010B013321
:1030C800034433600DE04C45F0D03B6801333B606E
:1030D800E268D8F8003013446269C8F80030E36841
:1030E800D1188A42E8D32046FFF776FC2B6824687B
:1030F80003442B60D9E700BF4C0100241CE30508FA
:10310800F8B50B4B0B4F5C6A0CB1BC4200D1F8BD53
:1031180004F11805E36805EB8306B54201D324687A
:10312800F2E755F8042B0449044800F023FDF4E7BE
:103138004C0100241CE30508FEDD0408A4910508E1
:1031480030B50023202511F8012F0AB9027030BDCF
:10315800120600F101041FD513B120230370204685
:103168000B78124A03F07F0363B9013A12F8013F62
:103178000446013013F0800F0BD003F07F03237057
:103188000123E0E712F9014B002CFBDA013BDBB22B
:10319800EAE700F8013CE9E7012B04BF0570204687
:1031A8000B7800F8013B0223CDE700BF05DE0408D9
:1031B80038B54368054619440368994210D9037B1A
:1031C8001BB1002107480CF019F901F110048068BF
:1031D80024F0070408342146FFF743F82C60A86060
:1031E80038BD00BF30A3050870B504460E46114629
:1031F8001546FFF7DDFF31462A46D4E90130184469
:103208002FF066FE63682B44636070BD012938B5F2
:1032180038BF012104460025084621606560FFF794
:1032280005F82573A06038BD38B505460C46013150
:10323800FFF7ECFF6C6038BD00230160C0E9013284
:10324800012303737047000038B514460546FFF79D
:10325800DDFF024B2560636038BD00BFF131000817
:10326800037B10B5044613B98068FFF707F80023FD
:10327800A36010BD38B505461020FEF7D7FF0446F9
:103288002946FFF7C3FF204638BD10B5044648B1AC
:10329800037B13B98068FEF7F1FF2046BDE81040B4
:1032A800FEF7ECBF10BD000038B5037B04460D46A1
:1032B8001BB1002106480CF0A1F801688068294478
:1032C800FEF7CFFF2368A0601D441844256038BD71
:1032D80030A3050838B504460D46FFF769FFD4E961
:1032E80001301D441844656038BDD0E9002310B58D
:1032F8009A42044602D10121FFF7D6FF0021D4E902
:103308000132D154A06810BD10B50C460121FFF759
:10331800E1FF047010BD7F29F8B50C46CEB204D881
:103328000121FFF7D7FF0670F8BD06F03F06B1F59B
:10333800006FC1F3871546F0800607D265F03F0598
:103348000221FFF7C7FF46700570EDE705F03F055E
:10335800B1F5803FC1F3073745F0800508D267F023
:103368001F070321FFF7B6FF457007708670DBE77C
:10337800A40C07F03F07042164F00F0467F07F07EF
:10338800FFF7A8FF857004704770C670CCE738B5A2
:1033980005460C4608462FF0EDFD21460246284614
:1033A800BDE83840FFF720BFF8B547680446164621
:1033B800B94228BF39460D461146FFF7F9FEA36802
:1033C800A8197A1B591918442FF082FD6368A06860
:1033D800334428446360F8BD43688B422CBF591AB4
:1033E80000214160704738B50446154608466268B2
:1033F8008A4203D929448A4201D8606038BDA3684B
:10340800521A184419442FF063FD63685B1B63600C
:10341800F4E70846114630F03BBD70B5054608464E
:103428000E462FF0A7FD044620B102466B683146D0
:1034380028689847204670BD2DE9F74F8A469DF8C1
:10344800301091460D9A11F0DF0F0746A2EB0905DF
:1034580051D0302953D1C3F34721002953D05F29D4
:103468000BBF052604262C482C4892FBF6F106FBD8
:10347800112109B901350132711E92FBF6F406FBE0
:1034880014228A1A00EB020813F020023ED005EB42
:10349800D573A5EB63045D10002D3BDDAB465E459F
:1034A80032467B684146A8BF5A4638680192984719
:1034B800019AABEB020BBBF1000FF0DCB9F1000F86
:1034C80005D04D447B684A46514638689847002CD9
:1034D8000DDD2544A642B1467B684146A8BFA146FA
:1034E8003868A4EB09044A469847002CF2DC2846C1
:1034F80003B0BDE8F08FDFF828801026C4E70DF18F
:1035080030080126C0E7DFF81C80F6E713F0010455
:10351800C2D02C460025D1E7B8910508BD91050811
:10352800C3910508AC9105082DE9F04F924693B078
:10353800CA0780460D461C9C9DF874900593DDE9EA
:103548001E760BD48B0703D109687C4B994205D0B2
:1035580028460DF00DFE450045F0010514F0210345
:1035680006D1B9F1300F03D1B742B8BF37461E466E
:1035780028460DF1280B11F017F800281CDBA007CE
:1035880016D52B238DF828300DF1290322079DF835
:1035980014101FD5BAF1020F10D14FF0300C184695
:1035A80000F802CB01F1010C83F801C0034611E0D9
:1035B800610701D52023E5E75B46E7E7BAF1080F85
:1035C8005BD130201870200649BF01F10E0001338D
:1035D8005870023300200EAA012E1870A3EB0B03BB
:1035E8000B924FF010020693C4F34723C8BF14434D
:1035F8008DF82700CDE90C2014F01002CDE9021354
:10360800059245D02B460DAA0CA9CDE900A00BA820
:1036180010F098FE037882462D2B06D18DF82730BE
:1036280000F1010A0D9B013B0D93012E7ADD0D9DE2
:10363800059BB542B8BF35462BB19DF8273003B17D
:103648000135069B1D4424F00103AF42079371DD49
:1036580014F00109A7EB05056DD1202301954A4611
:103668003749009340464B464D46FFF7E5FE044672
:10367800059B4FF03009C3B936E0BAF1100FA9D154
:103688004FF0300C184600F802CB01F1170C8BE70D
:103698000AAB0DAA0CA90BA8CDE900A32B4610F084
:1036A80051FE8246C1E700252C469DF8273053B1CC
:1036B800002301220DF127014046013FCDE90032E8
:1036C800FFF7BAFE0444069B5BB10023012259466A
:1036D8004046CDE90032069AFFF7AEFE069B044449
:1036E800FF1A012ED8BF3E46079B51460D9A404609
:1036F800CDE90096FFF7A0FE04444DB12023104900
:1037080040460195009300231A46FFF795FE0444AE
:103718000B980EAB984201D0FEF7B0FD204613B0CF
:10372800BDE8F08F059B0794002BBCD11D461C46B5
:103738003E46D9E7002500249AE700BFC4A805083B
:103748002F3205082DE9F0430746900798468DB0BB
:1037580054BFC2F380032B23164603A858BF5B014E
:103768000A464FF02101DDF8509058BFDBB20093B4
:10377800159B0AF0B5FCF20504461FD52E2103A8B7
:103788002FF04AFCD0B9652103A82FF045FCA8B951
:103798006E2103A82FF040FC80B9631C04F13002AD
:1037A8002E2102346A44303302F8241C6B44302240
:1037B80003F8242CA3186B4403F8240C73060ED5C5
:1037C80004F13002631C00210DEB0204252204F8E9
:1037D800242C03F130021C466A4402F8241C16F01B
:1037E80010051DD09DF80C302F2B4FF0000319D871
:1037F800012203A9384609F1FF39013CCDE900321D
:10380800FFF71AFE0DF10D010546334622463846EC
:10381800CDE90089FFF710FE28440DB0BDE8F0831C
:1038280003A9F2E703A91D46EFE700002DE9F04FD1
:1038380081468BB014464FF000080B461D4613F81E
:10384800012B0AB1252AF9D1A94208D26E1AD9F852
:103858000430D9F800003246B044984729460B781E
:10386800002B00F07F8120234A1C00270393134676
:1038780013F8016B3EB12D2E25D01ED8202E29D04D
:103888002B2E24D00026154612F8013BA3F1300157
:10389800092922D92E2B46D16B782A2B23D0002335
:1038A800154612F8011BA1F1300009281ED80A207C
:1038B80000FB031BABF13003F2E7302EE2D147F0F7
:1038C8001007039601E047F001071A46CFE747F0D3
:1038D8000207FAE747F00407F7E70A2101FB063376
:1038E800A3F13006CFE7023554F8043B23EAE37B23
:1038F8002B786C2B08BF01352978002900F032811C
:10390800782906D8572911D8472959D8442900F2C7
:103918001C81D9F8043001222946D9F8000008F1A1
:103928000108984785E04FF0FF3BE1E7A1F1580314
:10393800202BEED801A252F823F000BFCD390008A1
:103948001B3900081B3900081B3900081B390008FF
:103958001B3900081B3900081B3900081B390008EF
:103968001B390008213A00084B3A0008CD390008F5
:10397800533B0008533B0008533B00081B39000821
:103988001B3900081B3900081B3900081B390008BF
:103998001B3900081B3900081B390008CD390008FD
:1039A800613A00081B390008893A00081B390008E9
:1039B800CD3900081B3900081B390008CD3900082B
:1039C8005029A6D101F0DF0354F804CB502B6046F0
:1039D80068D164296AD1BCF1000F80F29D802D2343
:1039E800CCF100000A228DF8173051230DF1280A76
:1039F8000A3B0DF1180B8646B0FBF2FC02FB1C01DA
:103A0800604609298CBFC91830310AF8011DDA450A
:103A18005CD07245EFD959E054F8043B019653B194
:103A2800039B0422514900933B464846FFF704FD97
:103A38008044691C01E7039B05224D4900933B46DE
:103A4800F3E754F8043B012206A901968DF81830D3
:103A5800039B00933B46E8E706A954F8040BFFF7DD
:103A680006FBBBF1FF3F014604D0069B9B4538BFD0
:103A7800CDF818B0039B069A00933B460196D4E70D
:103A880054F804AB50462FF075FABBF1FF3F0246DD
:103A980002D0584528BF5A46039B514601960093C9
:103AA8003B46C2E7642996D075292FD021F00F0331
:103AB80000220F3B8DF817201022DBB2BCF1000F5B
:103AC80094D130230DF1270A8DF8273017F0100B09
:103AD8009DF817302DD0002B35D0039B01220DF116
:103AE8001701484600933B460192013EFFF7A4FCAC
:103AF8008346039B0AAA514648460093A2EB0A0252
:103B08003B460196FFF798FC584491E700230A22A8
:103B18008DF817306123D1E7BB0705D52B238DF826
:103B280017300A225123C9E7C7F380035B01DBB2D0
:103B3800F5E7002BDDD006AA9245DAD90AF8013C50
:103B48000AF1FF3AD5E79B46D3E70734039B3A4689
:103B5800484624F00704CDE9006BB4EC020BFFF7EC
:103B6800F1FD65E740460BB0BDE8F08F1A13050874
:103B78001F1305080EB403B503AA52F8041B0192DB
:103B8800FFF754FE02B05DF804EB03B0704703463C
:103B9800007893F90020002A0ADA00F07F0040221A
:103BA800104206D113F8012F02F0C001802904D079
:103BB800704720EA02005208F2E702F03F0242EAA8
:103BC8008010EFE7431C18460133027802F0C00268
:103BD800802AF8D0704703460020994200D87047E1
:103BE80011F8012D02F0C002802A18BF0130F4E755
:103BF80003460144002099421A4600D870471278BB
:103C0800013302F0C002802A18BF0130F3E7000038
:103C18007F289DBF024B185CC0F34000002070470E
:103C2800D39105087F289DBF024B185CC0F3C000E4
:103C380000207047D39105087F289DBF024B185C70
:103C4800C0F3800000207047D39105087F289DBFEE
:103C5800024B185CC0F3801000207047D391050810
:103C68007F2809D8064B1B5C13F00C0F06D1A0F176
:103C78005F03584258417047002070470120704741
:103C8800D39105087F289DBF024B185CC0F3001034
:103C980000207047D39105087F289DBF024B185C10
:103CA800C0F3401000207047D3910508024608B5BC
:103CB800FFF7E8FF02EB401008BD08B50246FFF722
:103CC800EBFF404220F01F00104408BD303809289F
:103CD80084BF20F020000738704730B50A4400241C
:103CE800E5258A4203D8B4FA84F0400930BD11F8BA
:103CF800013B34B103F0C003802B11D1013CE4B285
:103D0800EFE758B9BF2B09D9F72BEFD8DB0803F039
:103D1800060345FA03F303F00304E2E71B06E0D5C4
:103D28000020E3E7023981420B4603D31A8802399F
:103D3800002AF8D00233181A40107047B2EB131F4C
:103D480070B504464FEA13101BD901EB4001101A55
:103D580003F00F0326460246012A01F102010CBFB7
:103D680031F8025C51F8025C013A25FA03F526F8AD
:103D7800025BF1D104EB400434F8023C03B901388A
:103D880070BD0020FCE7F0B5059C0025121B2E46EF
:103D9800AC420FD101EB4403174600EB4404411A2F
:103DA8009FB904EB420316B1023324F81260181AC3
:103DB8004010F0BD31F8157033F815C067443E4423
:103DC80020F81560360C0135E2E71D88013F3544BF
:103DD8005D522E0C0233E3E7F0B4049F00260D4633
:103DE8003446D11BB7420BD105EB47030A4600EB1B
:103DF8004707451B7AB907EB4101F0BCFFF792BFB3
:103E080035F816C033F816206444A41A20F8164072
:103E180024140136E6E71E88013A34445C5324141E
:103E28000233E7E72DE9F043079C0239DDF828E083
:103E3800154684464FF6FF78A4EB0209DDE90876BB
:103E480055B900EB42011FB10123023120F81230AD
:103E5800BDE8F043FFF766BF31F8024F013D444427
:103E6800264405EB0904A5422ABF33F8024B4FF656
:103E7800FF744444744486EA040E360C17FA8EF72D
:103E88004FEA144E2CF8027B3F0CD9E7022938B5CB
:103E980038BF0221044680680D4618B12368B1EB8B
:103EA800930F07D96900FEF7DCF92368A06065F372
:103EB8009F03236038BD38B504460C20FEF7B6F9D9
:103EC800054623682278C3F39D0023F0030302F01C
:103ED8000102400013432B6063686B60FEF7A6F98C
:103EE800A8602268A168C2F39D0252002EF0C0FFAC
:103EF800284638BD994210B511D313D800EB4100BC
:103F080002EB410209B9084610BD30F8023D32F80B
:103F1800024D1B1B002B02DB04D10139F2E74FF0E5
:103F2800FF30F1E70120EFE710B5044638B18068AB
:103F3800FEF7A4F92046BDE81040FEF79FB910BD72
:103F480070B50C4602210546FFF7A0FF002C2B7820
:103F5800B5BF012200226142214662F30003AA682C
:103F68002B70012388B21446090C1E4622F8020B56
:103F780003F10103F6D16E60208070BD0023C0E913
:103F880000338360704728B103789B0702D48068A8
:103F9800FEF774B9704738B504460D464968FFF70F
:103FA80075FF2A782378A06862F3000323706A6893
:103FB800A96862605200BDE838402EF059BF0A4631
:103FC80029B90178426062F3000101707047FFF778
:103FD800B7BF08B5FFF7D2FFBDE80840FFF7EFBF4E
:103FE800920042F0020210B4026000225DF8044B15
:103FF800C0E901211946FFF7E2BFF8B514461D468E
:104008009DF8187004210646FFF740FF22462B460C
:1040180027B1002D0CDA624265EB4503317867F36E
:10402800000131700021716052EA030102D1F8BD2C
:104038000027F3E7D6E901104C1C746020F8112022
:10404800120C42EA03421B0CEEE72DE9F84353EC4D
:10405800102B1E46154603788046F20F62F30003C4
:10406800037047F6F07313EA16420AD198F8003045
:1040780023F0010388F800300023C8F80430BDE8B5
:10408800F8839A42F2D0C6F30A53A3F2FF34002C05
:10409800ECDB04D10121BDE8F843FFF751BFA3F2DF
:1040A800EF37C6F31306332C4FEA271746F480166A
:1040B80042DCC4F13402A4F11403C4F1140406FA76
:1040C80003F3D54026FA04F4D6401D4325430024C3
:1040D800A14639464046FFF7D9FEC8F80470B9F141
:1040E800000F06D04FEA49020021D8F808002EF048
:1040F80003FFA4B105FA04F2D8F8083023F8192010
:10410800C4F11003103409F10109A3F12002DD40C4
:1041180006FA04F426FA02F2DE40254315434B461C
:104128009F42ACD0D8F8082022F813502D0C013348
:1041380045EA0645360CF3E70C34A3F2334304F0A2
:104148000F044FEA2319C4E72DE9F8438F18C2F387
:104158005B0204460D46511C9846089EFFF796FEE2
:104168002378AC4600221FFA86FE68F3000323700A
:10417800BC456046626002D3401BBDE8F883017805
:104188000CF1010CA1F13003092B05D9A1F1410370
:10419800192B12D8A1F13703B342EDD2A06890468B
:1041A8008146B8F1000F0FD100EB420113B1023183
:1041B80020F81230091A4A10DAE7A1F16103192B25
:1041C800DAD8A1F15703E7E7B9F8001008F1FF388A
:1041D8000EFB013329F8023B1B0CE2E7F8B5044655
:1041E80015461E46C1B1531E4FF0FF371E44E90065
:1041F80020460F310909FFF749FE2378002123F0F3
:104208000103616023700B4645B9A06800EB4101CA
:10421800FFF788FD6060F8BD0127E8E700220F2B53
:104228000ADC3078013D3E4400FA03F003F108034C
:1042380042EA000292B2F2D1A0680131103B00EBD1
:104248004100616020F8022CDEE738B505780446A5
:104258000B7805F0010203F00103981A08D1D1E99F
:104268000132D4E90110FFF745FEEB0748BF404291
:1042780038BD884210B5044601D0FFF78CFE23787C
:1042880023F00103237010BD884210B5044601D005
:10429800FFF781FE63683BB12378C3F3000282F025
:1042A800010262F30003237010BD88421FB5044663
:1042B80001D0FFF770FE626862B901212046FFF75E
:1042C800E5FD0123A26813806360237843F00103AE
:1042D800237010E02378D9070FD523F0010323704A
:1042E80001230093A168ADF80E300DF10E030846C6
:1042F800FFF772FD606004B010BD511C2046FFF747
:10430800C5FD01230093ADF80E300DF10E03D4E97D
:1043180001210846FFF737FD6060D6E74B682DE9B5
:10432800F04705460E46144603B12AB931462846D9
:10433800BDE8F047FFF72FBE02F10F014FEA111851
:1043480003EB1111FFF7A2FDA96814F00F044FF059
:10435800000CD6E9012308BF102408EB020703EB81
:104368004203C4F1100407F1004001384FEA400944
:1043780001EB40001146864609BB6FF001032CFA99
:1043880004FCC8F1010809F102095A43831820F80E
:1043980002C04FEA480203EB4803524218462EF087
:1043A800ABFD03464B4417B133F8022D9AB12B7875
:1043B8006F60327862F300032B70BDE8F08733F842
:1043C80002AD01394AEA0C0C2CFA04FA4FEA0C4CFB
:1043D8002EF802A9D0E7013FE5E72DE9FF410D4698
:1043E80049680646144601B132B92946304604B038
:1043F800BDE8F041FFF7CFBDFFF748FDB768D5F836
:10440800088023466A6838464146FFF797FC3378A8
:1044180070600246297861F300033370DB070AD520
:10442800002320096968ADF80E30994201D0834213
:1044380004D181420AD804B0BDE8F08138F813509D
:104448009DB101238142ADF80E3012D904F00F045A
:10445800012338F8101003FA04F4013C214206D174
:10446800BDF80E30002BE6D003E00133DDE7ADF8F0
:104478000E30012312B93B807360DCE700933946A4
:104488000DF10E033846FFF77EFC7060D3E72DE987
:10449800F3410D465768D1F8048014463B469268AC
:1044A80006464146A868FFF725FD01301FBF234691
:1044B8002C4647461D4623782A785340DB0719D4F3
:1044C800791C3046FFF7E2FC6B680093AB68B06874
:1044D800D4E90121FFF757FC70602378327800286F
:1044E8000CBF002303F0010363F30002327002B033
:1044F800BDE8F08139463046FFF7C8FC6B68009389
:10450800AB68B068D4E90121FFF766FCE4E72DE960
:10451800F3410F464E68D2F804801446314692683B
:1045280043460546B868FFF7E5FC01301DBF234642
:104538003C46B046012618BF1F46237818BF002600
:104548003A785340DB0719D508F101012846FFF7EF
:104558009DFC7B680093BB68A868D4E90121FFF73C
:1045680012FC686018B1207800F0010070402B78C8
:1045780060F300032B7002B0BDE8F0814146284685
:10458800FFF784FC7B680093BB68A868D4E9012125
:10459800FFF722FCE5E74B682DE9F04F0C46516820
:1045A800154685B08B42064621BF19462546134657
:1045B8001C462B78DB0722D4237813F001071ED181
:1045C800FFF764FCB068AD683B46D4E9011C99422A
:1045D8000CD100EB4101FFF7A5FB00237060327896
:1045E80063F30002327005B0BDE8F08F35F8132090
:1045F8003CF81340224020F813200133E7E701314B
:104608003046FFF743FC2F78237807F00109D5F8E7
:1046180004C087EA030147F30007B06803F0010A02
:10462800C94343F30003A268834601F0010E41F336
:1046380000019BB289B200930291B9B26746019119
:10464800A968A1F102086168A1EB0C0103918FB977
:1046580000EB4C01BEF1000F03D00123023120F81A
:104668001C30FFF75FFB706022782B78C2F30002E2
:104678001340B4E738F8021F013F019B5940039BE0
:104688008944D9198F4225BF32F8021B009B009933
:104698005940029B8A4409EA0A014FEA1A4A4FEA3A
:1046A800194959401EFA81F14FEA114E2BF8021BA5
:1046B800CDE72DE9F84F4B680D465168144606467C
:1046C8008B4221BF19462C4613461D462378DB072B
:1046D80031D42B7813F001072DD1FFF7D7FBA06851
:1046E80064683B46D6F808C0D5E9012EA41A9A4258
:1046F80013D10CEB4203214600EB4202ACEB000065
:10470800A1B903EB4403A3EB0C0358103378706092
:1047180061F300033370BDE8F88F30F813103EF8EA
:10472800135029432CF813100133E0E71588013999
:1047380015520232E4E701313046FFF7A7FB27782C
:104748002B784FF0010A616807F00108B06803F0A0
:104758000109A46843F3000383469BB2A4F1020C49
:10476800D5E901E247F300050F46AEEB010EADB205
:104778002FB900EB4101FFF7D5FA0121C6E73CF854
:10478800024F013F6C40A0440EEB0704A7422ABF2A
:1047980032F8024B1C465C40A14448EA09044FEA3F
:1047A80019494FEA1848E4431AFA84F44FEA144ABC
:1047B8002BF8024BDCE74B68F0B50D465168144600
:1047C80085B08B42064621BF194613462C461D4626
:1047D80027782B785F4017F0010736D1FFF756FB93
:1047E800B068D4E90121247814F00104D5E9015313
:1047F80024D1521BA54212D101EB4503144600EB0C
:104808004505411AACB905EB4201FFF78BFA0027C1
:104818003378706067F30003337005B0F0BD31F88A
:10482800147033F814C087EA0C0720F814700134A8
:10483800E0E71F88013C5F520233E3E7CDE90277E6
:10484800CDE90057FFF7EEFAE1E701310127FFF75D
:104858001DFB2B78DB4303F00103039323780197B7
:10486800DB4303F0010302936B680093AB68B06805
:10487800D4E90121FFF7D6FACAE74B682DE9F04FD2
:10488800044685B00E4615460BB1536843B92378E4
:1048980023F0010323700023636005B0BDE8F08FA7
:1048A80081422DD1FFF707FBA542064607462ED0C9
:1048B8006B68204671681944FFF7E8FA22680021FE
:1048C800A068C2F39D0252002EF016FBB368D4F81C
:1048D80008E00022D6F804900193F446AB680EEB8A
:1048E8004908114602936B680393039B934233D0A4
:1048F800ACF10200DDF804B00023CDF800901AE016
:10490800824206D1FFF7D7FA05460746D0E70546A3
:10491800CEE70027CCE730F802AF53443BF802ABB0
:104928001946029B33F8123003FB0A1300990380DF
:1049380001391B0C009100990029ECD14146881CD3
:1049480013B10146A8F80030A1EB0E010CF1020CDE
:10495800013280464910C8E7616038462A783378C2
:104968005340227863F30002227005B0BDE8F04F8F
:10497800FFF7DABA4B6870B50546144613B11378D9
:10498800DA0706D52B7823F001032B7000236B6020
:1049980070BD636823B90121BDE87040FFF7D0BA44
:1049A8000846FFF788FA06462046FFF784FA0121F1
:1049B80004462846FFF7C4FA636883B1A3681B88D6
:1049C800DB0704D5324629462846FFF756FF012360
:1049D800D4E901210846FFF7B1F9606038B93046DB
:1049E800FFF7A2FA2046BDE87040FFF79DBA3246AD
:1049F80031463046FFF741FFDEE72DE9F04F0C4620
:104A080051688FB09346013105460393FFF73EFA8C
:104A1800DBF804200021A8680026013252002EF09D
:104A28006BFA2B786E60204623F001032B70DBF8BD
:104A380004100131FFF72AFA59462046FFF7ABFA6E
:104A4800039BD4F80890D4F8048048464146D3E93B
:104A5800013702933A46AB680493029BFFF74AFA80
:104A6800002833D10123049A606013806B60237897
:104A78006268002A0CBF002103F0010161F3000302
:104A8800039923709BF8003009784B40DB0740F10D
:104A9800FD806B682978003B18BF012363F3000190
:104AA8002970002A00F0F2800BA84FF0FF31FFF7C1
:104AB80090FA0BAA29462846FFF7E9FC039A2146F3
:104AC80020460FB0BDE8F04FFFF7E1BC013001D13F
:104AD8006E60CCE7029B03F100423346013A4FEA8D
:104AE800420A37F812100E0403F101004ED509EB03
:104AF80048014FF0000C9BB208F101000191CE462D
:104B0800C3F11006023129F818C0059660608E4579
:104B180040D337F812209A400592029A012A09D9FF
:104B280007EB0A02C3F1100132F8022CCA400599BA
:104B380011430591029A801A049A686000F10040B6
:104B4800013802EB400207920AF102020992BA1EEA
:104B58000892D4F804A0029A524529D30AF1004ACF
:104B68000022C3F110000AF1FF3A09EB4A0AD145C5
:104B780073D96FF000416B682BB15A18049830F85C
:104B88001220002A73D06FF0004175E049000346F7
:104B980089B2A8E7BEF8008008FA03F64CEA060CCA
:104BA800059E28FA06F82EF802CB1FFA88FCAEE715
:104BB800019A0198118832F8022C42EA01420599BB
:104BC800B2FBF1F20999411A00200691864608992C
:104BD800069F0E460199B9420DD809880844A8BB1A
:104BE800079921F80229019A0791023A01920AF1DC
:104BF800FF326260ADE736F8021FB7F800809940CF
:104C080018FA80F841EA1E4E1FFA8EF151431FFA36
:104C180081FC090CA8EB0C0CC1EB204127F802CB56
:104C280001EB2C40D6E738F8021F994041EA1E4EA6
:104C3800BCF80010394411FA8EF10F0C2CF8021B45
:104C480001996145EFD83844013AC8E70027DDF8F3
:104C58002080DDF818C0BE46F2E7BAF8001041FA25
:104C680003F6814032432AF802298AB27FE7013BE2
:104C78006B6080E7013B63606368002B3FF4F7AE2D
:104C88005A1839F81220002AF4D0F0E60FB0BDE81F
:104C9800F08FF0B51F4613780D4685B0D907044646
:104CA800164606D47B68012B0BD1BB681B88012BE9
:104CB80007D1237823F0010323700023636005B034
:104CC800F0BD01212046FFF73BF9736853B93B78E3
:104CD800DA07F4D53A462146204605B0BDE8F0404B
:104CE800FFF7D5BB6B68002BE3D02846FFF7E3F846
:104CF80005463046FFF7DFF8002306460393CDE963
:104D080001337368B3B1B3681B88DB070AD52A4639
:104D180021462046FFF7B1FD3B462246214601A821
:104D2800FFF76BFE0123D6E901210846FFF706F8D5
:104D3800706058B901A8FFF726F92846FFF7F4F87C
:104D4800304605B0BDE8F040FFF7EEB82A462946E0
:104D58002846FFF792FD3B462A46294601A8FFF759
:104D68004CFECEE7D0E901210346002001EB4202C8
:104D780010B5914204D31B78DB0748BF404210BDF1
:104D880032F8024D44EA0040F3E730B5D0E9012497
:104D9800002304EB4202944206D302780120D20792
:104DA80048BF5B420B6030BDB3F5004F04D232F808
:104DB800025D45EA0343EEE70020F4E7037813F0C9
:104DC800010310B510D1D0E9012404EB420294424A
:104DD80002D301200B6010BDB3F5803F04D232F836
:104DE800020D40EA0343F2E70020F4E72DE9F84F0B
:104DF800DDF828E0904604461A460D46C1B10EEB90
:104E0800030021784FF0010BD4E9019341F300012D
:104E1800A3F1020A0023C9B21F461E46B9F1000FCA
:104E280008D1B2BBB8F1000F2DD10120BDE8F88F31
:104E38007046E6E73AF802CF10364CEA0747072EE5
:104E480002DC09F1FF39E9E794F800C0BBB21CF0B5
:104E5800010F1FBF6FEA030C5BFA8CFC1FFA8CF37F
:104E6800CCF3072B5FFA83FC22B98C4517D1083E97
:104E78003F0AE4E725B100F801CC0138013AF6E72A
:104E880000F801CBFAE74B4083F08003C3F3C0106E
:104E9800CCE7002D18BF70462EF02EF8C5E7104657
:104EA800C4E7000000000000D0E901329FED0C0BC0
:104EB8009FED0D6B02EB43039A4205D30378DB07A2
:104EC80048BFB1EE400B704733F8021D07EE101AC9
:104ED800B8EEC77BA0EE067BB0EE470BECE700BF51
:104EE8000000000000000000000000000000F0408A
:104EF8000A292DE9F74F1546446814BF04220322F6
:104F0800804689469DF830A00D9E0092A4B98DB1C7
:104F1800013D324615F8011F134641B930221A7077
:104F2800002203F8012F981B03B0BDE8F08F02F8A8
:104F3800011BEFE73346F1E764000193B3462046CF
:104F4800FDF774F92246D8F8081007462DF090FFAF
:104F5800019B304607EB040C3A3BACF102040021FC
:104F6800A742A6461DD930315C46392988BFC918E1
:104F780004F8011B39468C458E461DD83846FDF786
:104F88007DF965BB98F80030DB0744BF2D2304F892
:104F9800013B3346621E9A4233D80023A01B23707C
:104FA800C2E7BEF800E04EEA014EBEFBF9F124F874
:104FB800021909FB11E1D3E7BEF800200231002AEB
:104FC800D9D0BAF1000F08D0211A009A914204D121
:104FD8000BF102048BF801A02046A346BDE7284642
:104FE8002DF0C8FF29185A460B46AB4204D88D420B
:104FF80088BF00200444C5E713F8017D02F8017F4B
:10500800F3E71978107803F8010B02F80119C2E7E1
:10501800D0E9023293423DBF5A1C826018784FF0A3
:10502800FF3070470368013B033310B5044602D8CC
:105038004068FDF723F92046BDE81040FDF71EB98A
:10504800F8B50C461F46164605461020FDF7EEF843
:10505800054B8460C0E900743444C4606B60034B42
:105068002860AB60F8BD00BF195000082D5000083B
:105078004268064B9A4207D103681A68013203D185
:1050880098680144996070470020704719500008DB
:1050980002690A2AF8B504461BD183690133836182
:1050A8000123E3610026237D0A272361637D23759D
:1050B800256EB5B16B1CA26D2366555D626D93427A
:1050C80001D366652666237D0D2B14D0BDB16575A9
:1050D800F8BDC369092A04BF073323F00703013366
:1050E800DFE7D4E901039847431CECD0012838BF17
:1050F80001200546E7E70A2D2775D9D0E6E7237D85
:10510800002BE4D00A2B18BF0A25E0E70169024604
:10511800272901D0222912D1012024E0137D272B31
:10512800FAD0222BF8D0722914D1662B16D1507DD3
:105138002728F1D0A0F12203584258417047A1F125
:105148006200132804D8084B034113F00100E5D08E
:1051580000207047662904D1722B00E0622B02D12F
:10516800E5E76229F8D07047EEFFF6FF38B5044648
:105178000D462069D0B10A2806D10DB1636AB3B1D2
:105188002046FFF785FFF4E7FEF742FD0028F7D138
:105198002369232B08D12046FFF77AFF2369002BC8
:1051A800E7D00A2BF7D1E4E75C2B02D0002528468C
:1051B80038BD237D0A2BF9D12046FFF769FFDFE7C9
:1051C800002301212DE9F04F044685B04364FFF721
:1051D800CDFFA369276A6363002FE369A36307DA36
:1051E8000723013784F83C30276205B0BDE8F08F0B
:1051F80004D00623013F84F83C30F5E7002835D079
:1052080039462046FFF7B2FF0523E56984F83C30AC
:10521800013DD4E90B3003F10042013A30F8122085
:105228009542E2D009D8013B30F81320954218D3B3
:10523800DBD0022384F83C30D7E7A16A8B4207D33E
:1052480008314900FDF70DF8A36A20630833A3620B
:10525800E36A5A1CE26220F81350236A013323627E
:10526800C3E7226AE362013A2262DCE7256915B9DD
:1052780084F83C50B9E72046FFF748FF0646002867
:1052880000F00B8284F83C702369722B6BD008D82D
:10529800622B0CD0662B70D0B9460025A8460B238C
:1052A8000DE0753BD3F1000949EB0309F5E7237DD0
:1052B8000025722B69D0A8464FF001090C2394F8F9
:1052C8003C20002A6AD184F83C30B9F1000F08D09C
:1052D8002046FFF7DDFEB9F1020F02D12046FFF7A5
:1052E800D7FE23692046222B0CBF222327230193B4
:1052F800FFF7CEFE2369019A934240F08680237D12
:10530800934240F0828020464FF00309FFF7C0FE29
:105318002046FFF7BDFE35B1A36E23B9A44904F1B9
:105328006400FEF734F804F140034FF0000B0293D9
:105338002169002900F0A881B9F1010F02D10A29D9
:1053480000F0A281CB4563D3594604F14000FEF733
:1053580043F801212046FFF709FF2046FFF7D6FE54
:10536800002891D11CE0237D622B0DD0662B10D034
:105378000025B0464FF0010991E7237D3546722B91
:1053880008D04FF00008F5E70025B0464FF00209B5
:1053980094E73546B0464FF0020980E79A4294D028
:1053A800A36E002B3FF421AF292104F16400FDF71F
:1053B800ABFF236E04F15006002B40F06B810321F4
:1053C8003046FDF787FF23690370237D4370637DB3
:1053D8008370216E3046D4E91A572A46FDF7E4FF58
:1053E8002A4639462DF044FD0023A26DA366236E9C
:1053F800581C2066D15C2161991C03332166105C1E
:1054080023662075535C6375EFE64FF0010982E768
:10541800019B8B4209D1194602980BF1010BFDF74C
:105428007AFF2046FFF734FE82E7002D60D15C2921
:1054380040F0278120460391FFF72AFED4F810A0F8
:105448000399B8F1000F6CD00298D346FDF763FFBB
:10545800D2E004F1640B28215846FDF755FFD4F833
:1054680068A00022216979B172BB3A290CD07D2944
:105478000AD0212928D1207D7238012829D8607DB9
:105488003A2801D07D2824D1D4E91A21881810F8A7
:10549800010C3D2809D1A2EB0A02514404F1400055
:1054A800FDF7A2FEA26E013AA266524558464FF099
:1054B800290104BF042384F83C30FDF725FF2C2183
:1054C8005846FDF721FF24E021F020005B280AD18F
:1054D8000132C9B258460392FDF716FF2046FFF77E
:1054E800D7FD039ABEE75D2808BF02F1FF32F0E757
:1054F8007B299CD120460391FFF7CAFD23697B2BAA
:10550800A7D104F140000399FDF7FEFE2046FFF7FE
:10551800BFFD7B2104F140004FF0000BFDF7F4FEC6
:1055280006E7BAF1780F09D8BAF15B0F0AD8BAF1D1
:10553800220F53D029D8BAF10A0F23D05C2104F1E5
:10554800400082E7AAF15C021C2A73D8DFE802F067
:1055580046727272728A2A7272723A7272727272B7
:105568007272347272720F722D3D37725C004FF096
:105578000D0B94F83C300B2B77D1594604F14000C1
:10558800FDF7C9FE4FF0000B4BE7BAF1550F1CD0E1
:10559800D4D8BAF1270F21D0BAF14E0F4AD1054815
:1055A8000AF01EFF4FF0080BE3E74FF0090BE0E7A6
:1055B8006A130508731305084FF00A0BD9E74FF073
:1055C8000B0BD6E74FF00C0BD3E794F83C200C2AD2
:1055D80006D15C2104F14000FDF79DFED346C8E7E3
:1055E800BAF1750F14BF4FF0080A4FF0040A4FF0D4
:1055F800000BBAF1010A0AD2BBF5881FB9D34FF0E4
:10560800010384F83C30BDE74FF0020AEFE720467B
:10561800FFF73EFD226910460392FEF717FB0028AC
:1056280000F04F81039A4FEA0B1B1046FEF74EFB22
:105638008344DEE7AAF1300BBBF1070F3FF67EAFDC
:105648004FF0030A06E02046FFF722FD2269303AB0
:1056580002EBCB0B227D303A072ACDD8BAF1010AEA
:10566800F1D1C9E74FF0070B83E7BBF1FF0FC6D8AD
:105678000C2BC4D15FFA8BF104F14000FDF744FE16
:1056880080E7C9B20298F9E7CB453CBF032384F809
:105698003C3059E6033B23669BE62846FEF7C2FAF0
:1056A8002169D8B95F2919D07F2917D80846FEF78C
:1056B800C3FA002855D123692E2B4DD00026834DDF
:1056C8002F781FB12369BB4240F0A4802046FFF722
:1056D800DFFC002F40F0A6800123ABE5082304F18E
:1056E8004005C9B284F83C302846FDF70DFE204637
:1056F800FFF7CEFC2069D8B92846754FFDF7F5FDB0
:105708000025064657F8041B30462DF041FC0028BA
:105718001CD10E35EDB2112D84F83C507FF465ADE7
:105728006C4BD3F8F033002B14BF0E23102381E504
:10573800FEF778FA40B920695F2805D07F2803D89A
:10574800FEF77AFA0028D7D0217CCDE7FFF64DADD9
:105758000135242DD6D148E5207DFEF76DFA0028C5
:10576800ACD021692E292AD10A2384F83C3000259F
:1057780004F140060A273046FDF7CDFD2046FFF725
:1057880087FC206900283FF430AD55BB20F020038A
:10579800452B26D16521304684F83C70FDF7BBFDCA
:1057A8002046FFF775FC21692B2901D02D29E8D166
:1057B8003046FDF7B0FD2046FFF76AFCE1E7092314
:1057C800302984F83C30D2D1237D43F02003623B5A
:1057D800DBB2162BCBD8404DDD4015F00105C7D103
:1057E800C5E7FEF71FFA28B121692E290DD184F8E3
:1057F8003C70DDE72069FEF71FFA0028F4D1236921
:105808002E2BF1D05F2BD6D0EFE421F020034A2BCA
:10581800CED1ECE7652F01D0632F00D101350136D9
:1058280001354DE7212F08D123693D2B7FF454AF73
:105838002046FFF72DFC3923FCE42E2F0FD12369D6
:105848002E2B02D1237D2E2B01D05C23F2E420469F
:10585800FFF71EFC2046FFF71BFC0D23EAE4033587
:10586800334615F8027C632F18D0652F16D01B4AD3
:10587800D35C84F83C30543BDBB2052B3FF6B5AC27
:10588800012202FA03F313F02A0F17D113F0150FB0
:105898003FF4ABAC636A13446362A6E415F8012CC9
:1058A80001362169914207D12046FFF7F1FB3346C3
:1058B800652FDCD00235D4E7632FFAE7636A013B32
:1058C800EAE70123834684F83C3052E625130508AD
:1058D800549205084C01002401204000E492050878
:1058E8007FB501AD0646742085E80E00FCF79EFCE6
:1058F8000446034695E8070043F8046B002583E84F
:10590800070001236FF001021420C4E906320A22BD
:10591800C4E90855C4E90A23FCF788FC2021206360
:1059280004F14000FDF772FC294604F15000FDF730
:105938006DFC294604F164002566FDF767FC236BBE
:1059480020461D802561A582FFF7A2FB2046FFF7B0
:105958009FFB2046FFF79CFB2046FFF731FCA36B1B
:10596800012B06D094F83C30052B1CBF062384F885
:105978003C30204604B070BD30B585B0054601AC5A
:105988002046FFF75DFB284694E80E00FFF7A8FFC6
:1059980005B030BD30B585B00446014601AD284696
:1059A80022F03CFF204695E80E00FFF799FF05B06E
:1059B80030BD10B50446B0B1C3684068984704F1DB
:1059C8004000FDF74DFC04F15000FDF749FC04F1DF
:1059D8006400FDF745FC206BFCF750FC2046BDE851
:1059E8001040FCF74BBC10BDD0E90432013B036109
:1059F80052F823007047036942695B1A013B52F869
:105A080023007047F8B5446A06460D46B4B1D4E998
:105A180000030B44834222D9083100220144204666
:105A2800FCF72AFC0246B8B9616820460831FCF741
:105A380023FC63682360336A63603462802D2F46D9
:105A480038BF802707F10800FCF7F0FB0023076048
:105A580004464360706202E023682B442360606858
:105A68000834054444F8045C2044F8BD38B50D46B4
:105A78000C211446FFF7C6FF4FF49D720560C0E97C
:105A8800012438BD38B5D0E9033204460D469A42A0
:105A980008D3103340699900FCF7E3FBE3686061C1
:105AA8001033E360D4E90432591C216142F82350D1
:105AB80038BDF8B504461D460F461646D0E9000322
:105AC800834208D31030C100A068FCF7CAFB2368E2
